:020000024000BC
:105000003DB8F3960000000000020000083E0300D7
:105010000000000000000000000000000000000090
:10502000FFFFFFFFFFFFFFFFFFFFFFFFFFFFFFFF90
:10503000FFFFFFFFFFFFFFFFFFFFFFFFFFFFFFFF80
:10504000FFFFFFFFFFFFFFFFFFFFFFFFFFFFFFFF70
:10505000FFFFFFFFFFFFFFFFFFFFFFFFFFFFFFFF60
:10506000FFFFFFFFFFFFFFFFFFFFFFFFFFFFFFFF50
:10507000FFFFFFFFFFFFFFFFFFFFFFFFFFFFFFFF40
:10508000FFFFFFFFFFFFFFFFFFFFFFFFFFFFFFFF30
:10509000FFFFFFFFFFFFFFFFFFFFFFFFFFFFFFFF20
:1050A000FFFFFFFFFFFFFFFFFFFFFFFFFFFFFFFF10
:1050B000FFFFFFFFFFFFFFFFFFFFFFFFFFFFFFFF00
:1050C000FFFFFFFFFFFFFFFFFFFFFFFFFFFFFFFFF0
:1050D000FFFFFFFFFFFFFFFFFFFFFFFFFFFFFFFFE0
:1050E000FFFFFFFFFFFFFFFFFFFFFFFFFFFFFFFFD0
:1050F000FFFFFFFFFFFFFFFFFFFFFFFFFFFFFFFFC0
:10510000FFFFFFFFFFFFFFFFFFFFFFFFFFFFFFFFAF
:10511000FFFFFFFFFFFFFFFFFFFFFFFFFFFFFFFF9F
:10512000FFFFFFFFFFFFFFFFFFFFFFFFFFFFFFFF8F
:10513000FFFFFFFFFFFFFFFFFFFFFFFFFFFFFFFF7F
:10514000FFFFFFFFFFFFFFFFFFFFFFFFFFFFFFFF6F
:10515000FFFFFFFFFFFFFFFFFFFFFFFFFFFFFFFF5F
:10516000FFFFFFFFFFFFFFFFFFFFFFFFFFFFFFFF4F
:10517000FFFFFFFFFFFFFFFFFFFFFFFFFFFFFFFF3F
:10518000FFFFFFFFFFFFFFFFFFFFFFFFFFFFFFFF2F
:10519000FFFFFFFFFFFFFFFFFFFFFFFFFFFFFFFF1F
:1051A000FFFFFFFFFFFFFFFFFFFFFFFFFFFFFFFF0F
:1051B000FFFFFFFFFFFFFFFFFFFFFFFFFFFFFFFFFF
:1051C000FFFFFFFFFFFFFFFFFFFFFFFFFFFFFFFFEF
:1051D000FFFFFFFFFFFFFFFFFFFFFFFFFFFFFFFFDF
:1051E000FFFFFFFFFFFFFFFFFFFFFFFFFFFFFFFFCF
:1051F000FFFFFFFFFFFFFFFFFFFFFFFFFFFFFFFFBF
:10520000407800207509020049610300610902002D
:10521000610902006109020061090200000000004A
:10522000000000000000000000000000350B02003C
:105230006109020000000000D10A020061090200B9
:10524000350D02001D8B0300350D0200350D0200E7
:10525000350D0200E38C0300350D0200350D020010
:10526000ED8A0300350D0200350D0200078B0300A7
:10527000350D0200350D0200350D0200350D02001E
:10528000350D0200350D0200350D0200350D02000E
:10529000350D0200B5DB0200350D0200350D0200B0
:1052A000350D0200350D0200350D0200350D0200EE
:1052B000350D0200350D0200350D0200350D0200DE
:1052C000350D0200350D0200350D0200350D0200CE
:1052D000350D0200350D0200350D0200FFFFFFFF06
:1052E00053B94AB9002908BF00281CBF4FF0FF314D
:1052F0004FF0FF3000F00CB8ADF1080C6DE904CEB2
:105300000BF056FFDDF804E0DDE9022304B070473E
:10531000704700BF2DE9F00791E8F807B2E80210E6
:105320005B1854EB0C04B2E802104D4156EB0C062E
:10533000B2E802104F4158EB0C08B2E8021059EBEA
:1053400001095AEB0C0A80E8F80780410130BDE8FA
:10535000F00770472DE9F00791E8F807B2E802106E
:105360005B1A74EB0C04B2E802108D4176EB0C066C
:10537000B2E802108F4178EB0C08B2E8021079EB2A
:1053800001097AEB0C0A80E8F80780414042BDE849
:10539000F00770472DE9F007524290E87800B1E835
:1053A00080071740DB1918EA020854EB080419EAD1
:1053B000020955EB09051AEA020A56EB0A0678C0FB
:1053C00090E87800B1E8800717407B4118EA0208AE
:1053D00054EB080419EA020955EB09051AEA020A16
:1053E00056EB0A0678C080410130BDE8F0077047EF
:1053F0002DE9F007524290E87800B1E880071740A5
:10540000DB1B18EA020874EB080419EA020975EBC1
:1054100009051AEA020A76EB0A0678C090E87800D5
:10542000B1E880071740BB4118EA020874EB080492
:1054300019EA020975EB09051AEA020A76EB0A066F
:1054400078C080414042BDE8F00770472DE9F00187
:1054500052424FF0040890E8300091E8C000A31BCE
:105460001340E41AF618EB1B1340ED1AFF1830C076
:10547000C0C1B8F10108EED1BDE8F001704700BF2E
:1054800000B592E8DC072DE9DC07B1E8805702B4EB
:10549000A7FB02510A95A8FB020BE7FB6310E9FB8F
:1054A00062B00B91A8FB0351EAFB6201E7FB64B514
:1054B000E7FB6605E8FB6615CDF830B0A9FB03B63F
:1054C000EAFB6316ECFB6356E8FB640BE9FB641B29
:1054D000EAFB645BECFB646B0D90ACFB0230059C5B
:1054E000EEFB6250E9FB6460EAFB64B0E7FB643109
:1054F000E8FB6451069CE8FB6461E9FB64B1EAFBEC
:1055000064010E93A7FB0432079CE7FB6462E8FB8F
:1055100064B2E9FB6402EAFB6412049CE9FB645395
:10552000EAFB6463089CE7FB64B3E8FB6403E9FB04
:105530006413EAFB64230F955DF8049B99E8000669
:10554000DDF80080A9FB0854EAFB68B4DDF81080A0
:10555000ECFB6804EEFB6814E9FB6824EAFB6834A2
:10556000DDF80480EEFB6865E9FB68B5EAFB6805D9
:10557000DDF81480ECFB6815EEFB6825E9FB683567
:10558000EAFB68450F96DDF80880AEFB0876E9FB7C
:105590006806EAFB6816DDF81880ECFB6826EEFB6F
:1055A0006836E9FB6846EAFB6856DDF80C80ECFBE0
:1055B00068B7EEFB6807E9FB6817EAFB6827DDF8C8
:1055C0001C80ECFB6837EEFB6847E9FB6857EAFB99
:1055D000686708B000BD00BF2DE9F14F87B0FFF745
:1055E0004FFFDDF81C8008F1200888E8FF00FFBCB1
:1055F00087E87F08BDE8F08F00B591E89857A3FBD6
:1056000003520195A3FB0401E3FB6420E3FB671055
:105610000292A3FB0752E3FB6802E4FB6415E3FB81
:105620006805E3FB69250391A4FB07B6E3FB692644
:10563000E3FB6A56E4FB670BE4FB682BE3FB6A5B66
:10564000E3FB6C6B0490A4FB0810E4FB6950E3FBE4
:105650006C60E3FB6EB0E7FB6721E4FB6951E4FBA0
:105660006A61E3FB6EB1E4FB6E010592A7FB0832B1
:10567000E4FB6A62E4FB6CB2E4FB6E02E7FB6E12D1
:10568000E7FB6853E7FB6963E4FB6CB3E7FB6C0380
:10569000E7FB6E13E8FB6E230695A7FB0954E7FBB7
:1056A0006AB4E7FB6C04E8FB6C14E8FB6E24E9FBCE
:1056B0006E34E8FB6865E7FB6AB5E8FB6A05E8FB62
:1056C0006C15E9FB6C25E9FB6E35EAFB6E45079628
:1056D000A8FB0976E8FB6A06E9FB6A16E9FB6C267B
:1056E000EAFB6C36EAFB6E46ECFB6E56E8FB69B7EC
:1056F000E9FB6907E9FB6A17EAFB6A27EAFB6C37F3
:10570000ECFB6C47ECFB6E57EEFB6E6700BD00BF19
:105710002DE9F14F87B0FFF76FFFDDF81C8008F12E
:10572000200888E8FF00FFBC87E87F08BDE8F08F0D
:1057300030B44FF0000310F8014B11F8015B013A4F
:1057400084EA050443EA0403F5D1A3F101034FEA17
:10575000D37030BC704700BF4FF0000310F8012B2E
:10576000013943EA0203F9D1A3F101034FEAD370EF
:10577000704700BF30B411F8014B12F8015B6C4068
:1057800000F8014B013BF6D130BC70472DE9F00722
:1057900091E8F807B2E802105B1854EB0C04B2E889
:1057A00002104D4156EB0C06B2E802104F4158EB87
:1057B0000C08B2E8021059EB01095AEB0C0A8941B6
:1057C000B3F1FF3374F1FF3475F1FF3576F1000664
:1057D00077F1000778F1000879F101097AF1FF3AD1
:1057E00051F100015B184C414D4156F1000657F153
:1057F000000758F1000859EBD1795AEB010A80E80B
:10580000F807BDE8F00770472DE9F00791E8F807C1
:10581000B2E802105B1A74EB0C04B2E802108D417E
:1058200076EB0C06B2E802108F4178EB0C08B2E878
:10583000021079EB01097AEB0C0A89415B184C41A3
:105840004D4156F1000657F1000758F1000859EB99
:10585000D1795AEB010A80E8F807BDE8F0077047F4
:1058600018EB040859EB05095AEB060A5BEB070B2A
:105870005FF0000C4CF1000C18EB050859EB060921
:105880005AEB070A5BEB070B50EB0C005FF0000CC8
:1058900051EB0C0152EB0C0263414CF1000CB8EBE4
:1058A000070879F100097AF1000A7BEB040BA841A3
:1058B000B141A241B3416CF1000CBBEB050BB0410F
:1058C000B941AA41BB416CF1000C4CF001068CF0CF
:1058D000020718EB060859EB6C095AEB6C0A7BEBD4
:1058E0006C0B70EB6C0471EB6C0572EB670653EBA1
:1058F0006C076CEB6C0C18EB0C0059EB0C015AEBC1
:105900000C025BF1000354F1000455F1000556EB65
:10591000DC7657EB0C0770472DE9F14F87B0FFF7A6
:10592000AFFDDDF81080DDF81490DDF818A0FFF76A
:1059300097FFBDE8000FFFF793FF03B05DF8048BFE
:1059400088E8FF00BDE8F08F2DE9F14F87B0FFF741
:1059500053FEDDF81080DDF81490DDF818A0FFF795
:105960007FFFBDE8000FFFF77BFF03B05DF8048BFE
:1059700088E8FF00BDE8F08F1FB50B4B01934FF493
:105980008C73ADF8083008238DF80A3083788DF8D1
:105990000B3001A9FF2301208DF80C3000F082FBB1
:1059A00005B05DF804FB00BF1D9201001FB50A4B56
:1059B00001934FF43A73ADF8083008238DF80A309C
:1059C00001A943788DF80B3000208DF80C0000F011
:1059D00069FB05B05DF804FBA3B90100F7B5044607
:1059E0000D4641B9124B1B78012B04D0019101A83F
:1059F0000121FFF7F3FF23680E4E0F4F0733002DF1
:105A000023F0070323600CBF2046002000F026FB94
:105A1000002556F8043B0BB1384698470135072D51
:105A2000F7D100F08FFB23680344236003B0F0BD7F
:105A3000580B0020400000205A0B00202DE9F743AE
:105A40002A4C0190074601A80E46FFF7C7FFA5782C
:105A5000E3784FF000091D44EDB2C8465FFA89F3C0
:105A60009D4238D80198033020F00300002E0190A9
:105A7000414618BF002000F0A9FC019D2179054492
:105A8000019589B16379627C0335002E25F0030509
:105A90001A44D2B2A38901950CBF2846002000F019
:105AA00009FD019B03440193A17B79B123796BB17B
:105AB000019B073323F00703002E0CBF184600207C
:105AC000019304F0AFFE019B034401930198C01BB6
:105AD00003B0BDE8F083A37A627A217AE0790CF012
:105AE00016FA09F101098044B8E700BF580B0020FD
:105AF0008FB572B6194B9D6AE5B9BFF34F8F184940
:105B0000184BCA6802F4E0621343CB60BFF34F8FB7
:105B100000BFFDE7B4FBF6F4DAB20133002CF9D193
:105B200002F110036B440A2603F80C4C32B901A8A9
:105B3000A847E2E7044600230A26EDE7531E04AC1B
:105B400054FA83F4DAB2C3B2B3FBF6F706FB1733A9
:105B5000303304F80C3CB0FBF6F0E7E7580B0020BC
:105B600000ED00E00400FA051FB5104B9A7A8DF89D
:105B700009205A7A8DF8082002A81A7ADB79ADF844
:105B80000C20ADF80A3003F07BFA18B1D9210320BC
:105B9000FFF7AEFF012301A88DF804300DF063FD7F
:105BA00008B1DD21F3E705B05DF804FB580B0020D8
:105BB00038B5054690B30AF007FF10B94FF0FF3033
:105BC00038BD07F0FBFCB0F5FA7FF7D8164C174844
:105BD000A562002500F0E4F929461C22144825702E
:105BE0000BF074FA26222946A01C0BF06FFA012351
:105BF000E37023711B23E37140F21B3323810223E3
:105C0000A3721F23A3810823A373EFF3108472B63A
:105C100000F026FD2CB962B62046D1E76FF01500E2
:105C2000CEE72846CCE700BF580B002069CB000028
:105C30004000002010B5002836D1204C2378022BDC
:105C40002FD059B1002A32D0023905292CD8DFE8EB
:105C500001F0030F1D2B20231378E3700121002096
:105C6000FFF7ECFEB0F5803F24DA0123237010BD6E
:105C70009378E3B1D378D3B113781A2B17D953782B
:105C80001A2B14D91368C4F80730E7E71378237187
:105C9000E4E71388A381E1E71388FF2B07D8A373F8
:105CA000DCE74FF0FF30E2E76FF02C00DFE76FF04A
:105CB0001500DCE76FF00B00D9E700BF580B0020A0
:105CC00070B50D460646E8B1E1B111F0070419D1EF
:105CD00000F0A4F8C8B130460AF0EAFF0C4E2146A5
:105CE00086F82C002846FFF7A9FE0EF087FE96F8EE
:105CF0002C00214603F058FAFFF736FF02233370D9
:105D0000204670BD6FF01500FBE74FF0FF30F8E75D
:105D1000580B002010B5074C2378022B05D103F057
:105D20005BFA94F82C000AF0DFFF0CF0DFF900209A
:105D3000207010BD580B002050B1074B03F1140226
:105D400053F8041B40F8041B9342F9D1002070471C
:105D50006FF01500704700BF3CF4030010B5064B10
:105D60001C7834B903F0EAF9044B054A5A6020461E
:105D700010BD4FF0FF30FBE7580B00204000002023
:105D800079C9000010B5064B1C7834B903F0EAF964
:105D9000044B054A1A60204610BD4FF0FF30FBE768
:105DA000580B002040000020ADC9000010B5054B85
:105DB0001C781CB903F08EF9204610BD4FF0FF305F
:105DC000FBE700BF580B002010B5054B1C781CB931
:105DD0000DF05FFC204610BD4FF0FF30FBE700BF29
:105DE000580B002010B5054B1C781CB90DF054FC65
:105DF000204610BD4FF0FF30FBE700BF580B0020DE
:105E0000024B02681A600020704700BF880B002018
:105E1000014B1B68184700BF880B0020024B186815
:105E2000003818BF01207047880B00202DE9F3418E
:105E3000284E031D04463360304604F04DF9022815
:105E4000054607D1234920460BF021FB284602B026
:105E5000BDE8F081042836D13378072B18D13E20D5
:105E600000F04EF878B9F378327901A943EA0223B9
:105E70006846ADF800300BF0E4FD0028DCD053217B
:105E80000820FFF735FE052000F07AF80028EAD058
:105E9000314620460BF060FBB0F5817F01D37221C3
:105EA000EEE70028C8D0277894F80280384600F042
:105EB00027F80028C0D03E2FC8D1404600F060F837
:105EC0000028C3D1B8E70828C0D1024920460BF00A
:105ED0000DFBBBE78C0B0020074B4FF0FF3141F669
:105EE000FF72C3E9001205490022C1E900221F2107
:105EF000C3E90212704700BF00000020D00B002051
:105F00003F280CD801380B4BC0F3421200F01F00A1
:105F100053F8223023FA00F000F001007047FF2808
:105F200006D04038C0F34212034B00F01F00EFE7E9
:105F30000120704700000020D00B00200146074BD5
:105F4000006849681A4603C240F48C221A6041F086
:105F5000107242F4FF625A60704700BF00000020D8
:105F60000246024B0068516803C37047D00B002003
:105F70000246024B0068516803C3704708000020C6
:105F80000138064BC0F3421203EB820300F01F00FE
:105F90009B6823FA00F000F0010070470000002029
:105FA000014B1860704700BFD80B002010B5FFF7F9
:105FB00093FF0CF047FF034B1B68044603B198475F
:105FC000204610BDD80B00200B880288F0B5C3F323
:105FD0000E049EB204F11803C57CC35A05352A4449
:105FE0002B4497B213FA82F3013B4288B3FBF7F3D9
:105FF00013FB07439BB29A42044A93BF22EA06036B
:10600000324013439BB20B80F0BD00BF0080FFFF06
:1060100010B5114B00EB41041A786389B3FBF2F31E
:1060200003FB0223013A1A44B2F5706F027928BFCC
:1060300000231A448378B2FBF3F0194403FB1020C9
:10604000091AB1FBF3F003FB101313446FEA434347
:106050006FEA5343638110BDDC0B002010B5104B79
:10606000C0B15A78022A04D040F22B111720FFF752
:106070003FFD03225A70026812F0070102D04FF46C
:106080009871F3E75C685A6022440260C3E9031127
:106090009A6010BD0122C3E901005A70F9E700BF00
:1060A000DC0B00202DE9F041254E96F801E00EF0C2
:1060B000FD0CBCF1010F04D040F245111720FFF791
:1060C00017FD91F80680B8F1080F02D940F2471188
:1060D000F4E7CF7997B34546022D726838BF0225A1
:1060E0007B1D5C0002EB43036A1E13446D422B4090
:1060F0008D884544013DC8F100022A404FF6FE75E7
:10610000AA4202D94FF4A971D8E7BEF1030F12D108
:1061100006EB80001C1BC56815B140F25711CDE796
:10612000C460A770228084F803C0087A09682071CF
:10613000080CE080218107FB02337360BDE8F08129
:10614000DC0B00202DE9F041364C6378012B65D043
:10615000032B04D040F267111720FFF7C9FCD4E9E4
:1061600001329A4202D04FF4B571F5E7A4460023FC
:106170005CF80C6F23701D4601229E465CF82210CD
:10618000571E49B108798A78FF2829D181F804E09F
:1061900095423CBFD5B201230022002FEED003B1BF
:1061A0002570256925B3002640F6FF67AB78F1B26C
:1061B0008B421DD905EB410328465F81FFF728FF7D
:1061C0000136F3E776B196F8048080450CD1B078BB
:1061D0000244FF2A0AD903B125704FF48371BBE74B
:1061E000002FEFD00020F3E73846F1E70871CFE742
:1061F000E56875B1002640F6FF67AB78F1B28B42D7
:1062000007D905EB410328465F81FFF701FF0136FF
:10621000F3E7042363700020BDE8F0810223606887
:106220006370F9E7DC0B0020F8B54FF6FF730380CD
:10623000184B03EB81030546D868B8B1867803791B
:10624000B3FBF6F206FB1233DBB219460A1D00EB74
:106250004202B2F902705488002F09DB0131B1FB10
:10626000F6F206FB1211C9B28B42EFD10020F8BD45
:10627000FF29FBD0C4F30E03C4782B8024B94FF45C
:10628000D9711720FFF734FC5380BDE8F8400BF0BC
:106290001DBE00BFDC0B00201E4B03EB810370B55D
:1062A000DC6805464CB3B0F5706F04D34FF4E07171
:1062B0001720FFF71DFC014620460BF0E9FDFF28E3
:1062C000014604D02046BDE870400BF0FFBDA07829
:1062D000B5FBF0F300FB1353DBB219460A1D04EBC8
:1062E0004206B6F90260002E09DB0131B1FBF0F283
:1062F00000FB1211C9B28B42F0D1002070BDFF2902
:10630000FBD08B4204EB42021CBF0023E37055809C
:10631000D8E700BFDC0B0020094B03EB810310B56D
:10632000DC68014620460BF0B3FDFF28014604D08F
:106330002046BDE810400BF0C9BD002010BD00BFD5
:10634000DC0B0020F8B5104B03EB81030746DC683B
:10635000014620460BF09CFDFF28054611D0E6883B
:10636000238953EA064606D0014620460BF0AEFDCF
:1063700001463846B04720462946FFF749FE00202F
:10638000F8BD0320FCE700BFDC0B002038B50E4B46
:10639000827903EB82030446D86808B9022038BD2D
:1063A0008278E1799142F9D24B1CE37100EB410311
:1063B0005D89B3F90A30002BF3DBA5800BF086FD75
:1063C00020600020EBE700BFDC0B002070B5044626
:1063D00010F003000E4603D049211820FFF788FB78
:1063E0000BF0FAFC054624B10348314604600BF07B
:1063F000F3FC284670BD00BFF00B00202DE9F04FE4
:106400001E4C85B092462268BDF83CB09846814645
:10641000BDF838300D461AB95B211820FFF768FB2C
:106420001A460A21504603930BF081FB5A46064652
:10643000092140460BF07BFB3118074620680BF022
:10644000F6FC039BC9F8000018B9286005B0BDE848
:10645000F08F84192C60D9F8000000935246314621
:106460000A230BF016FB2868CDF838B00923424602
:10647000394605B0BDE8F04F0BF00BBBF00B002028
:1064800070B50E4604460BF05BFB054630460BF03C
:1064900057FB044B2A1821461868BDE870400BF0E2
:1064A000F0BC00BFF00B0020014B18680BF0B2BC31
:1064B000F00B0020F8B511441D4EC9B210F00305D1
:1064C000317003D04E210920FFF712FB1F2B19D882
:1064D0009B009BB2033323F003039BB208B17060AF
:1064E000338101EB81047668E2004FF0010C00EB90
:1064F000C404EFB2B94212D8D01D03FB010020F052
:106500000700F8BDFF2B4FEA430204D9FF33934243
:10651000DFDB93B2DEE77C2AFBDC7C23DAE710B119
:1065200086F800C07460013528361C44E1E700BFDE
:10653000F40B002038B5144A147853680021C8B20F
:10654000844203D8A9210920FFF7D2FA1846013165
:1065500005782833002DF2D00021817001241289A2
:10656000447044688161C161920800F12001051DF9
:1065700021F8022B994245F8044B1444F8D100232A
:106580004361037038BD00BFF40B00202DE9F843D0
:106590004B7880460C4602F0040602F0FB07D3B1AC
:1065A000DFB12E4BD4F804901D89B7BB0123637073
:1065B000AD08A761E76104F120034A46211D04F1FB
:1065C000280023F8025B984241F8042B2A44F8D1B2
:1065D0000023636101E0002FE3D0FF23A370002EAE
:1065E00018BF0226A3191B7D032B03D1022F1CBF4A
:1065F0000136F6B2A31901221A7506F10C0204EB5A
:106600008606002324F812307268A370C8F80020B0
:10661000A8F804304046BDE8F883002114226170D8
:10662000A0180AF053FDB5F5FF7F0FD26B08ED1AE5
:10663000ADB209EB0502C4F804902584A26063841E
:10664000C4F80C90A5842261E384C6E7B5F5EE6F2B
:106650004FF0FF03EBD940F27265EAE7F40B00203C
:10666000134B012200214FF0FF309A60C3F8001253
:10667000C3F80803C3F80015C3F804259A60C3F8EB
:106680000803C3F80015C3F804250A490A4A03F5AC
:1066900080334FF40040C3F80825C1F88000BFF3F1
:1066A0004F8FBFF36F8FC1F88001C3F80825704783
:1066B00000F0004000E100E00000F63F0A46192328
:1066C00002F8033B0448C368C1F803300369536010
:1066D00043699360704700BF000C0020024B5A8C46
:1066E00002435A845B6A1847000C0020014B0021CA
:1066F0005B6A1847000C002010B5154C06F04AF8EC
:1067000005F076FC208DFFF7F1FF237E6BB122466A
:10671000104952F80C3BE36063685360A3689360D0
:1067200004F1190002220DF0D2FC236B93F87C30A7
:10673000022B02D1084804F02BF8A36B94F8341014
:1067400094F835009847002384F83C3010BD00BF12
:10675000000C0020BDD600002C0C0020034B93F849
:106760003C300BB1FFF7C8BF704700BF000C0020E2
:1067700070B51D4C256B636C236495F8AC300646F0
:1067800094F848000BB10430C0B295F869102EB9E6
:10679000FF2803D195F868308B4201D005F0C4FE84
:1067A00095F8AC30D3B1E06C06F076F9012384F8AB
:1067B0006830D5E94423E16C206CC4E9182305F066
:1067C000CDFB16B9304606F0A5F995F86810002003
:1067D00006F0EAF9022384F83C3070BD206C06F024
:1067E0005BF905F005FCECE7000C00202DE9F74310
:1067F000404C94F83C30266B012B05460F465FFA5F
:1068000083F804D040F276412720FFF771F996F81B
:106810009C303BB1002186F89C100420FFF75EFFFE
:1068200086F89E80A16F0B7803F00303032B05D13C
:1068300096F8A23013B90220FFF750FFA26F137829
:1068400003F00303032B03D05378002B3ED1012325
:1068500086F8A23096F8AC30B3B1D6E94401236B88
:1068600094F84890C4E918014FF0010893F86900C2
:1068700084F868800BF03CFC0022034600921E491D
:106880004A46404605F024FBDDB9D7B1E36F284600
:106890009847B0B194F834309BB994F88030D90659
:1068A000C3F300125CBF636C1D78D4F884305CBF06
:1068B000C5F30015C5F1010553B9B4F888303BB1F3
:1068C00032B903B0BDE8F043FFF716BF0223BFE7BC
:1068D000638C9A0709D5A36FDB78022BF1D10020D6
:1068E00003B0BDE8F043FFF743BF002DE9D1002B13
:1068F000F5D0E6E7000C0020500C002008B5094B4D
:1069000093F83C20022A04D040F23D212720FFF7D3
:10691000EFF8DA7A42F00102DA72BDE80840FFF7D8
:10692000EBBE00BF000C0020044B93F83C2002F0AB
:10693000FF000AB9187670470C207047000C002041
:106940000A4B0B4A70B506460D461A60FFF7ECFF7E
:1069500018B1DF212720FFF7CBF8064C012104F105
:106960008A000DF0A5FA6664E56470BD5C00002045
:1069700028E10000000C0020024B012283F8AC202B
:10698000704700BF000C00202DE9F043804C85B01B
:1069900002AE86E8030094F83C100C9F01F0FF055E
:1069A00011B90AB103B127B94FF4A8712720FFF735
:1069B0009FF896E8030004F12C0C8CE8030084F89F
:1069C000AC5084F8345084F8AD5084F8355084F8D5
:1069D000AE5065842585256BE3676262A76305F089
:1069E000E1FD05F005FB95F96C0005F067FE686AAE
:1069F00006F044F8E86905F067FE95F8BC0005F07C
:106A000089FE236B93F80F320BB105F0B9FD95F8B1
:106A10006910012005F04EFF002800F0B6805D4BA4
:106A20005D4E186806F030F82B69C4F8B0306B6919
:106A3000C4F8B43005F5947705F58C731868596877
:106A4000324603C20833BB421646F7D1D5F8282197
:106A5000C4F869205A68514B5A60236B93F8A620FA
:106A6000A2F12501012993F868100E4603D993F885
:106A7000A700252855D193F8BE322BB1012E03D0A3
:106A8000012B14BF0226012605F130073146384696
:106A90000DF0ADFB31460DF048F8AB8F95F869105D
:106AA000834228BF0346384684F8B8300DF088FB8F
:106AB00095F8691095F8AC60B5F84480082908BFCE
:106AC00004210DF032F80EB9043080B2404528BFE1
:106AD000404695F8AC305FFA80F884F848809BB166
:106AE000D5E9446795F869004FF00109C4E91867D2
:106AF00084F868900BF0FCFA0022034600922649C5
:106B00004246484605F0E4F90120FFF731FE244BE8
:106B1000D3F8503523F00803032B2AD14FF4FD712D
:106B200044E7203A012A0CD8232893F84E210AD0B2
:106B300012F0010319D19207A6D5012918BF022628
:106B4000A2E723280DD193F84E2193F8613013402A
:106B500013F001020BD19B0796D5012908BF0E4601
:106B6000ECE7042908BF08268EE71E468CE7164688
:106B70008AE7002323606360A360B5F8A0306380D8
:106B80002B88238095F8BC30237105B0BDE8F083D5
:106B9000000C00205C000020500C0020690C00203C
:106BA0000010004008B50C4B93F83C201AB9BDE822
:106BB0000840FFF7A1BD93F83C20022A04D040F220
:106BC00013212720FEF794FF1B6BD3F82802BDE8A2
:106BD000084005F073BF00BF000C0020014B187681
:106BE000704700BF000C0020014B93F8AE007047C7
:106BF000000C0020024B188DC0F38020704700BFAE
:106C0000000C0020014B93F8AD007047000C0020F1
:106C10002DE9F3411E4D82072C6B06460F4622D507
:106C2000D5F8843023B940F267412720FEF760FF92
:106C3000B5F88820296C1846033291F801800AF0D3
:106C4000CDF90DF1020201A92864D5F8B4000BF0CA
:106C5000B9F801980BF0A0F8012238604146D5F848
:106C6000B4000BF045F8F3070ED5D4E944320133F4
:106C700042F10002C4E9443294F8A430012B0CBF65
:106C80000023012384F8A43002B0BDE8F08100BFE6
:106C9000000C00202DE9F04FA04C002387B0CDE977
:106CA000043394F83C30276B022B80468A4604D08C
:106CB00040F2E9412720FEF71BFF238D590606D439
:106CC0004020FFF713FD238D43F04003238597F801
:106CD000AC30B8F1000F00F01281A3B105F0B6F9A5
:106CE00005F09AF978B9236C5A7862B11B7897F855
:106CF000A420C3F3C0039A4205D1012384F83530A0
:106D0000FFF7FAFC4FE1236C5978A4F8881011B30F
:106D1000D4F8B4000AF0C2FFC4F88400238D97F8B9
:106D2000A32043F480732385236C1B78C3F3800373
:106D30009A4200F0B980256B95F8A230002B3ED026
:106D4000022B12D1D4F8B00004A90AF03EFF28B9F2
:106D500040F2E531AEE7C4F88410DFE7D5E942320E
:106D6000013342F10002C5E9423295F89E3000211C
:106D700085F8A21023B185F89E101020FFF7AEFC15
:106D800095F89D309BB1002685F89D6002F0FAFBD6
:106D900010B94FF47F718DE731460820FFF79EFC54
:106DA000D5E94232013342F10002C5E9423295F899
:106DB000A330012B0CBF0023012385F8A330238DC2
:106DC00043F4806323854FF0000B216C97F8A420D7
:106DD0000D78C5F3C0039A4240F0868005F00305A4
:106DE000032D266B62D0002D6BD196F8A430013BA9
:106DF00018BF012386F8A430236C5B7833B1D6E941
:106E00004432013342F10002C6E9443297F8AB3014
:106E100093B1D7E94223216B002691F8680084F8EA
:106E20006860C4E918230BF063F93D4900960346F6
:106E3000FB22304605F04CF8BAF1000F72D1628C9B
:106E400094F8AD30120703D5A26FD278022A69D028
:106E5000012B67D8E36F01209847002862D094F88F
:106E60003490B9F1000F5DD1266B94F8483096F854
:106E7000AC208DF80D90002A40F09880FF2B96F8FA
:106E8000681003D196F869308B4202D0FF2005F0DC
:106E90004BFB96F8A230032B00F22F81DFE813F0B2
:106EA00089000E0111012401C3468EE7238D0120C4
:106EB00043F4006386F89C002385FFF70FFC002550
:106EC00093E74B78002BFAD0228DD4F8845042F40B
:106ED00000622285002D99D0FB2B07D894F8AC30A6
:106EE0005BB12020FFF702FC00258FE794F83430D7
:106EF00043F0100384F83430F6E7454675E70BB1EC
:106F000005F0DAF894F8AD30013384F8AD30238D14
:106F1000002543F400732385AB4677E7000C00207F
:106F2000500C002005F060FE4FF0010A1DB105A9CC
:106F30000220FFF76DFEBBF1000F0DD0B4F8072063
:106F4000B4F805301343B7F8A02013431EBFB4F8BC
:106F500009300133A4F80930B8F1000F00F0D580F2
:106F6000B4F805300133A4F80530002384F8AD30BF
:106F7000694803F0EFFB049840B10AF00DFF216B64
:106F800000234372082201300DF08FF8059B33B1C6
:106F9000216B00221A720F2205980DF086F8BAF1C3
:106FA000000F7FF4ADAE07B0BDE8F08F0433DBB265
:106FB00064E794F8B830ADF80E305848A6F8583069
:106FC00002F0D0FA00285DD0A16F8020FFF786FB89
:106FD000012386F89D3096F8A330A26FDB0003F002
:106FE0000801137803F0F3030B4396F8A41089000B
:106FF00001F004010B4323F0100103F00303032B02
:10700000117002D1D378022B0FD0D4F8B0000AF05F
:1070100024FE40B9A36F1B7803F00303032B04D0B5
:1070200002F0C6FA08B94FF01009A06F037849EAD8
:10703000030980F8009096F8AB30002B60D04378BD
:10704000002B5DD0E06C05F027FD002384F868304C
:10705000D6E94223A16FE06CC4E9182304F07EFF57
:1070600096F86910012005F09FFDA26F1188A4F821
:10707000801091782A4A012384F8AE30917084F808
:107080003C3053E7D4F8B0000DF10D020DF10E01C4
:107090000AF078FDA06788B196F8E73073B99DF8DB
:1070A0000D302BB903808370A06F01210CF000FF1D
:1070B000BDF80E10A06F0CF0C7FF8CE7194BA3674B
:1070C00089E7B6F85830D4F8B000ADF80E300DF1BD
:1070D0000D020DF10E010AF055FDA06700287FF4A6
:1070E0007AAF40F2D621E5E50C4802F03BFA0028E1
:1070F0007FF471AF40F2DF21DCE54FF43B71D9E55D
:1071000005F0CAFC04F074FFAAE7B4F807300133B5
:10711000A4F807302CE700BF2C0C0020780C0020CE
:10712000800C00208A0C0020FDD8000095DC0000B7
:10713000EDD700005DD7000038B5074D044600F1DB
:10714000510128680CF029FE94F850102868BDE819
:1071500038400CF030BE00BFBC0C0020F8B504462F
:107160000E466588407F15F00401134618BF04F1F0
:107170005F01324602F0D6FCC20705460BD501235B
:1071800084F85030607F02F031FD0368C4F851305C
:107190008388A4F85530AB070CD5094E0127306819
:1071A00084F85E7004F15F010CF0FEFD3068394632
:1071B0000CF00AFE85F00400C0F38000F8BD00BFAB
:1071C000BC0C002038B5C38D0E4D0133C385AB7C9C
:1071D00004462BB105F0CEFC04F022FE0023AB7474
:1071E00000232B7194F871302BB101212046BDE8AA
:1071F00038400BF0DEBB637C13B1E28D9A42F4D2CF
:107200000021F3E7BC0C002070B5294C2379012B39
:1072100007D02379022B04D040F6D7412D20FEF76A
:1072200067FCA0B90125A37C1BB105F0A3FC04F009
:10723000F7FD002D3AD0E0690BF033FB002830D089
:1072400005F0A8FA236ABDE870409B6818472168DA
:10725000E26911F8095B02F15103E80992F8502044
:107260000CF07DFB0028DDD0206800210CF0D2FD61
:107270000028D7D02379E069012B05D02379022B90
:1072800002D04FF44B61C9E72379226A03F18043AE
:107290005269013B05F00F0152F82330984705462B
:1072A000C1E7E069BDE87040FFF78CBF70BD00BF6B
:1072B000BC0C00202DE9F04104460E4619B300F144
:1072C000280528460BF036F9A0B963881A072DD592
:1072D00028460BF046F9074628460BF02BF9381ADA
:1072E000C0B20BF04EF9594A9368034428469360A4
:1072F0000BF0FCF828460BF0FEF805F00BFA2179AC
:10730000252005F011F9514D94F85E70286800238E
:1073100003806388103B0D2B61D8DFE803F05E60CB
:107320005A0C603F606060606060603F2046BDE86E
:10733000F041FFF747BF002102F088FD2A6813786B
:1073400023F0200343F0200313702046FFF7F4FEE0
:10735000638823F008039BB2152B05D094F83820DE
:10736000616B28680CF037FD286805F095FB032356
:107370002B7136B16388102B36D12179002005F0AE
:10738000CFF96388103B0D2B5AD8DFE803F05C5926
:10739000535359535959595959595953012102F0C5
:1073A00055FD2868037823F0200343F02003037081
:1073B00047B104F15F010CF0F7FC012128680CF0E3
:1073C00003FDC2E704F158010CF0EEFC94F85710ED
:1073D000F4E7062102F03AFDB7E70221FAE740F2AE
:1073E0004D612D20FEF784FB04F128084046EF682C
:1073F0000BF0B7F8064640460BF09CF8013E301AF9
:1074000061882822C0B200F089FC63881B0707440A
:1074100006D5AB681F440BF0B1F83844C4F8D80067
:1074200022793946002005F0ADFA0028A9D140F6AE
:107430004C51D6E721790120BDE8F04105F0B4BBFD
:107440004FF45661CDE7BDE8F08100BFBC0C0020D1
:1074500038B54388102B044604D1BDE838400121DB
:10746000FFF728BF0B4DAB7C23B104F0BFFC4020DD
:1074700005F074FB286805F00FFB608810F004002D
:1074800002D1217905F090FB002005F043FB012398
:107490002B7138BDBC0C0020024B0121D869FFF7CD
:1074A00009BF00BFBC0C002010B5134CA37C1BB15E
:1074B00005F060FB04F0B4FCE0690BF0F2F970B188
:1074C0002379E069012B0FD12379226A03F18043EC
:1074D000D268013BBDE8104052F823301847E069FC
:1074E000BDE81040FFF76EBE2379022BECD040F6CA
:1074F000DF312D20FEF7FCFABC0C002018B1084B40
:10750000D869FFF75FBE51B1054A1379116AD06996
:10751000096903F18043033B51F823301847704752
:10752000BC0C00202DE9F043032985B005469046A8
:107530007ED090F8703003F0FF02002B7DD105293A
:1075400004D16B88DE0760D5002A5ED10127DFF801
:10755000F09099F81260B6B10CF045FA082888F856
:10756000000014D002AA0DF1070102F0ABFA20B915
:1075700040F628712D20FEF7BBFA9DF8070002A9FE
:107580000DF028F9064698F80030082B08D1D9F8F4
:10759000001011F8030BC0F380100DF01BF9064624
:1075A000D9F8001095F8572011F8030B05F158038E
:1075B000C0F380100CF0D3F9D9F80010044611F88C
:1075C000030BC0F380100CF004FA814602F020FB9C
:1075D000014640B1B9F1080F1BD0484602F092F9BC
:1075E00080F00101C9B298F80000082815D094B9BC
:1075F0006B7F1C1A604260416B885A0706D421B920
:1076000096B9EB7C93B1BB4210D0002005B0BDE829
:10761000F0830021E7E70120EEE714B181F00104D7
:10762000E4B204F00100E7E73046EFE70120EDE7C0
:1076300043889B07E9D5022789E70529E5D180E73B
:10764000BC0C0020032973B5054604D0052955D08C
:10765000012002B070BD08230DF107028DF807303C
:10766000FFF760FF0028F3D02B7C294E0BB39DF869
:10767000070095F8BE30E3B92B7885F8BF300828AD
:1076800005F1C1022BD005F1C00102F01BFA20B9AF
:1076900040F6A5712D20FEF72BFA95F8C03043F087
:1076A000020385F8C0301B49022205F1B6000CF038
:1076B000FCFC306800240421048002F0C7FB28464B
:1076C000FFF73AFD95F84020E96B30680CF092FB2B
:1076D00030680423337105F0DFF92046B9E73068DC
:1076E000034613F8031BC1F3801185F8C010D0F8CE
:1076F0000310C5F8C1109B889380D4E7064B1B6824
:1077000023B1984780F00100C0B2A2E71846A0E775
:10771000BC0C002027910100600000202DE9FF47EC
:1077200008230DF10702052104468DF80730FFF705
:10773000F9FE074620B90027384604B0BDE8F087B7
:107740007C4E3168F27C11F8030B06F11403C0F390
:1077500080100CF004F980460028ECD1256A3268CC
:1077600095F8AE30117803EA511303F0010385F860
:10777000AE30D2F80F30EB61537D117D1B0443EA2C
:107780000123D17C0B436B62B2F819000CF017FA9D
:107790003368A86181460146987D0CF014FA33687D
:1077A000A8854946B3F817000CF016FA3368A862AA
:1077B000B3F81B202A84B3F81D206A8493F8242090
:1077C00002F01F0285F8BA20D3F81F00029093F848
:1077D00023308DF80C3002A905F1AE000CF033FA1D
:1077E000336893F824305B0985F8103240F20113B6
:1077F000A5F868304FF0FF0A85F86AA005F130005F
:10780000414602F017FD284694F912100CF0CDF90C
:10781000256A84F87B802B88A4F87C3084F899A0B2
:107820004FF6FF73A4F89A30A8699DF807900CF002
:10783000C0F92B8CA4F894306B8CA4F89200A4F8B7
:10784000963095F8103284F89830237F04F1860240
:1078500083B394F85030012B2CD194F8563003F0B8
:10786000C003402B26D1D4F85130C4F88630B4F888
:107870005530306893800346B9F1080F13F8032B95
:10788000C2F3801284F87F20D0F8030004F1800254
:1078900004F18C0144D0C4F88C009B888B8048464E
:1078A00004F17F0102F00EF940B940F635412D2078
:1078B000FEF71EF90023C4F88630DAE794F87F302B
:1078C00043F0020384F87F301B49022204F1720066
:1078D0000CF0EBFB236A19491A88A4F8B32093F83B
:1078E000AE3084F8B530022204F1AA000CF0DDFBC2
:1078F000134B206A1B68002232710BB12146984756
:107900003368226AD3F80310C2F80310B3F80710E3
:10791000A2F807101B78226AC3F3801393700BE759
:10792000C4F880009B8893800023C4F88C308B803F
:10793000CAE700BFBC0C00203F910100119101007B
:107940006400002010B50B4B1A798AB11A79DC69F2
:10795000012A02D01A79022A05D19B7C1BB105F0BD
:1079600009F904F05DFA2046BDE81040FFF72ABC93
:1079700010BD00BFBC0C002010B50948037903F00E
:10798000FF0453B918222146043009F09FFB05F08B
:10799000F1F804F045FA204610BD0C24FBE700BFC7
:1079A000BC0C002010B5094C002323712060FFF7A8
:1079B000E3FF20B140F21D312D20FEF799F8236A34
:1079C00013B94FF44871F7E710BD00BFBC0C00209D
:1079D000014B024A1A627047BC0C0020C4EC000044
:1079E000034B044A1A60044B044A1A60704700BFF4
:1079F000600000201DE70000640000207DF800000A
:107A00002DE9F041067DB31EDBB2012B04468CBF8D
:107A10004FF000084FF001087EB3B71E18BF0127D2
:107A2000012B36D800F1580190F857000BF0D1FF28
:107A3000082805462DD001F071FF58BB657784F802
:107A40001C8084F8507002F037F805460DF0AEFA4D
:107A5000174BA5FB03351B1845EB01050022C4E9B4
:107A6000123584F85E2011462046FFF777FB70B987
:107A700040F2BA412D20FEF73BF83746082504F1C5
:107A80005101002001F0BAFD0028D7D10020BDE847
:107A9000F0810825022EF2D0E37E002BF6D0D4F838
:107AA0001530C4F85130B4F81930A4F85530C5E792
:107AB00040420F002DE9F041634E337986B0044611
:107AC00003F0FF0513B90378FF2B04D140F6D6115C
:107AD0002D20FEF70DF85D4B02935D4B03935D4B3C
:107AE0000493336A75715B6880F8715002A805933E
:107AF0003582B560B57104F0C7FF04F053FD05F0A1
:107B000039F804F08DF9544804F0DEFD04F128073B
:107B1000524804F0B3FF38460AF0E8FC38460AF051
:107B2000EAFC04F0F7FD2179252004F0FDFC94F92E
:107B3000120004F0C3FD2846217904F0BBFE05467F
:107B4000F06030B92046FFF73DFB284606B0BDE89F
:107B5000F081012104F168000BF0F5FE04F134011D
:107B6000206B0AF032FA04F13C010746206B0AF060
:107B700053FA05461FB194F82430002B3ED10DB1C5
:107B800094F82550237F13B963885B070AD5D4E99D
:107B900012126FF000439A4208BFB1F1FF3F2FD19C
:107BA000002D35D13068033001F0AAFF6588B0742C
:107BB00015F0010546D00023276ACDE90033FF23E5
:107BC000F37407F10A086846FEF7E0FB0028BCD111
:107BD000009CA742F7D07A7A607A434604F10A0102
:107BE0000BF0BDFE0028EED0A378F374D4F80300A8
:107BF00070611B4BB4F807209A80A6E70125C1E706
:107C00000DF0D4F9D4E91223904271EB0303C7D3EA
:107C1000012205EA02012046FFF7A0FA68B101F04F
:107C20004BFF05460DF0C2F90E4BA5FB03351B18A3
:107C300045EB0105C4E91235B4E7002DB2D040F69A
:107C4000172145E7012580E7BC0C0020A9E40000CE
:107C500009E20000FDE40000D6BE898E55555500AE
:107C6000D00C002040420F00024BD8611B6A1B68F9
:107C7000184700BFBC0C002043881B0710B5044602
:107C800012D5036A0A493C2280F87B201B88A0F8A1
:107C90007C30FF2380F899304FF6FF73A0F89A30BC
:107CA000022272300CF001FA012384F8713010BD09
:107CB0003F91010045E6000051E400009F91010062
:107CC000999101000594010045E9000099E4000044
:107CD000C0EC0000B8EC0000B4EC00000138022851
:107CE00008B503D9CA212F20FDF702FF13290A4B3B
:107CF00005D811290CD8102907D0D821F3E7152968
:107D0000FBD103EB4003D88801E033F8100008BD35
:107D100003EB40039889FAE794A4030008B5431ED7
:107D2000DBB2012B05D91D291ED0EE212F20FDF736
:107D3000DFFE10390D291BD8DFE801F0071A1111F9
:107D40001A0C1A1A1A1A1A1A1A160B4A02EB4303B9
:107D5000588A08BD084A02EB4303D88AF9E7064A65
:107D600002EB4303588BF4E740F25A335843F0E7F1
:107D70004FF48171DAE700BF94A403000B2808B523
:107D800004D940F247310620FDF7B2FE014B33F82B
:107D9000100008BDB4A403002DE9F04F8BB00446D9
:107DA00015460293894690F869B00BF0BEFC064672
:107DB00094F81002FFF7E2FF94F8A730039306440B
:107DC00085F00103B6B2059355BB94F85C32032BE2
:107DD00026D1039B0D2B23D1B4F8BC324B451FD1C8
:107DE000D4F86432C4F85032A369B4F82E22C4F82F
:107DF0005432B4F8A2321344C4F85832204603F087
:107E000065FFD4F8C032A362B4F8BE32A385D4F8BB
:107E1000C432A361D4F8C8322362022384F85C32EE
:107E2000B4F8A072B4F8A080A9EB07073FB204F53C
:107E30001E73A9EB0808002F04930FFA88F86EDA76
:107E4000D4E9A4234746C4E9A62301230493CC4BD9
:107E50001B7803F0FF05002B54D005F02FFC0546DE
:107E600000284FD0B4F84432012B6DD994F85C321D
:107E7000022B69D094F87252002D65D194F810024B
:107E8000FFF77CFF94F85C3200F5C866012BB6B2B0
:107E9000D9B24CD194F8AA30D4F828A0032B40D101
:107EA000D4F8545255443146D4F8540205F05CFBE2
:107EB000D4F85032C4F85002A0EB030AD4F8583278
:107EC0003146284603FB0AFA05F04EFBD4F860520F
:107ED000C4F86002451B3146A06905F045FBAA4481
:107EE000B4F82E52D4F858324544ED1BDB432B44F2
:107EF000D4F86452451B05FB03A50123C4F86402B2
:107F000084F8723294F85C32DFF874A2032B00F22A
:107F10008281DFE813F01B0016016B003701029B22
:107F200094E728460BF02BFE00EB0A05BBE7A0699F
:107F3000314605F019FBB4F82E52D4F864324544AA
:107F4000ED1BC31A5D43D8E70025DBE701210020C4
:107F50000BF015FE8046A06A3146404405F004FB54
:107F60003146C4F86002A06905F0FEFA07A9C4F81A
:107F7000640208A804F040FE079B0093D4E9A60120
:107F8000DDE9082308F004FC834620460AF026FCBD
:107F9000D4F8A832A66A94F869001E4404F072FF6F
:107FA000D4F86012A6F120077F1A00F523404FF4A1
:107FB0007A734744A130B0FBF3F0A38DA7EB0B0716
:107FC00030313F1A03EB410194F869000AF0DDFA01
:107FD000D4F8A832FB1A2230B3F5C87FCAF80400DF
:107FE00055D840F2E5413020FDF782FDA36AD4F870
:107FF00054023146184405F0B7FA3146C4F860021D
:10800000A06905F0B1FAC4F8640220460AF0E6FB64
:10801000B4F82E32A66AD4F85472002B40F08C804B
:10802000029B002B00F0888094F869B0584604F059
:1080300029FF3744D4F8AC22D4F860320493804648
:10804000203F5846174404F015FF049BFF1A3F1ABF
:1080500008F5234808F1A1084FF47A70B8FBF0F84E
:10806000A7EB0807D4F86012D4F85032D4F858229D
:1080700094F86900303102FB0311A38D03EB410139
:108080000AF083FA0123CAF8040084F85C32A66976
:10809000D4F86432A6F21B26F61ADAF804309E42AF
:1080A00028BF1E466E23A4F88032D4E9A6327F1B77
:1080B000DF1942F100024FF00008C4E9A272C4F8CF
:1080C000286284F8788204F130000CF077F8B4F874
:1080D0001812A4F8A092D4E9A223A1EB09090FFA7F
:1080E00089F9C145C4E9A623C8BF022384F8828266
:1080F000C8BF84F88232039B06440D2BC4F87C620F
:10810000029B00F08B80002B40F0898094F85C3259
:10811000002B00F0A280A169D4F8643204F51E702F
:10812000C91A0BF0D1FC80B2002800F09680149B95
:1081300003B118800120A0E0D4F8600237443F1A50
:1081400090E7D4F86422A369D4F85802D4F8501206
:108150009B1A5F43B4F82E329844C3439844D4F832
:108160006032303301FB0033A18D94F8690002FBCB
:10817000083301EB43010AF008FACAF8040086E765
:10818000E00C0020A369D4F864021B1A5F4394F842
:10819000A630252B03D094F8A730252B0AD1B4F8AC
:1081A000BC32A9EB03031B0404D494F8BF32002BA8
:1081B00018BF9B46049B03B3B4F82E32EBB9D4F836
:1081C000AC3213B940F237510DE794F8690004F06E
:1081D00059FED4F8AC320646203B94F8690004936B
:1081E00004F048FE049B1F44381A06F52343A133CC
:1081F0004FF47A77B3FBF7F7C71BB4F82E12D4F815
:108200006432414459433031490058460AF0BDF9BF
:108210001B4B58603BE740F24C51E4E6EBB1B4F83D
:10822000441221B3B4F8462294F84832A4F8462206
:1082300002FB0333994202F101000EDD94F8823211
:108240005BB1002384F88232A4F8460202F076F88B
:1082500000F00700013084F8480294F8A40204F505
:108260001E7107F08FFA20B940F29551BBE60A461D
:10827000DAE7059B84F8703200200BB0BDE8F08F80
:10828000E00C00202DE9FF41044618B99821302068
:10829000FDF72EFC082900F23281DFE811F0090019
:1082A00080008A008A00850030011C0124012E0113
:1082B0000023C0F8AC3290F87032B0F8A020002B48
:1082C00065D0B0F86E3293425BD1B0F81C22A0F8B2
:1082D000A020D31AA0F81E32D4E9A2232046C4E974
:1082E000A42303F0D7FB94F82332002B00F0B680D0
:1082F000A569D4F86432DFF80C829D4288BFED1A7C
:1083000098F8083098BF00251BB9236B9D4228BF01
:108310001D4604F130000BF051FF064694F8690049
:1083200004F0B0FDD4F8283203F24517374400F5C5
:108330005F404FF47A734130B0FBF3F00744022002
:1083400007F058FFED1B25EAE575854228BF054675
:108350000221284607F09CFF00B92F4440F2792201
:10836000394620460BF075FFD4F82832C8F80C00C7
:10837000A069184407F0E4FE00286FD140F29B3159
:1083800085E79A1AA0F81E22A4F8A030A4E7B0F856
:108390006C329A1AA0F81E22B0F86C32F4E704B0DE
:1083A000BDE8F0410CF016BB04B0BDE8F04104F0AC
:1083B0002FBC0CF0FBFDD4E9A423801A61EB030170
:1083C000012871F1000302DA40F212615FE76FF0F9
:1083D000010383424FF000038B4102DA40F2136144
:1083E00055E7A3690BB1B0FBF3F394F8A710B4F809
:1083F0006E220D2935D10132A4F86E22B4F8A232D2
:10840000B4F8A0500133A4F8A232B4F8DA301D4415
:10841000B4F8D830013DED1AADB20DF10E06B4F846
:108420006E126B1A1B0436D594F8AA303649002B0D
:108430000CBF3E23082384F8C93004F1C0000BF0C0
:1084400040FE20460CF0C8FA002384F85C3294F811
:10845000A40207F025F8202384F8A43204B0BDE874
:10846000F081B4F8A0100B449BB2D11A090454BF98
:10847000531C01339BB2A4F86E3294F87132002B76
:10848000BCD1B4F81C32B4F86E22934204BF01335D
:10849000A4F86E32B2E7002300961A462046FFF792
:1084A0007BFC0028DAD0012812D1B4F86E22B4F88F
:1084B0001812BDF80E301344521A12049BB204D5A0
:1084C000EA1A12F4004F18BF0B46A4F86E32A6E762
:1084D00040F25261DBE6012005F010F804B0BDE87F
:1084E000F04109F013BE90F85C32042B01D0BC219E
:1084F000CDE6002380F85C32B0E7C221C7E6C62192
:10850000C5E600BFE00C002057B3010090F8E8304A
:108510002DE9F04104460D46164603F0FF0813B15D
:108520000C20BDE8F0810146474806F08FFF202867
:108530000746F5D05022414604F1C80008F0C6FDB8
:10854000012384F8C870C4F8CC5084F8E83035B101
:1085500001F00CFF00F00700013085F848022046CA
:108560000AF026F800274FF48173A4F8FA30A4F833
:10857000F80084F8F07005F027F8B4F8F850D23518
:108580000544204609F030FFADB2014668B30BF058
:10859000CCF800F5CD6189B2304604F0E5FF3044F7
:1085A000C4F8F4000CF002FD281841F10001C4E900
:1085B0004001012084F8D000E78409F0E2FFDB3EAF
:1085C000361AC4F8D4604FF0FF326FF00043C4E9AC
:1085D000422394F8C80004F1F00107F0D3F830BB4F
:1085E0004FF4F4713020FDF783FA204609F020FEA5
:1085F000164FDB30C4F8F400388A40B1E08C30B15B
:1086000001F0B4FE3B8AB0FBF3F202FB1300054419
:108610000CF0CCFC2D1841F10001C4E94051002EB2
:10862000D1D0751941F10001C4E94251D1E7D4E933
:10863000402300252046C4E93823A4F8EA502946FF
:1086400009F0FEFE28466CE73B960100E00C002096
:10865000F0B5002385B0CDE9003301238DF8063055
:108660006846FDF793FE70B11B4E0123B3740027DB
:10867000CDE9027702A8FDF789FE0546A8B10020E2
:10868000B07405B0F0BD00980AF0E7F8E8E790F89C
:10869000A40207F031FF94F8A40284F85C5206F0BB
:1086A000FFFE202384F8A432E2E7029B002BE1D0F6
:1086B00093F8A422202ADDD018884FF6FF73984241
:1086C000DDD02946FDF728FE04460028DFD140F220
:1086D00023113020FDF70CFAE00C0020054B00229E
:1086E00001211A7219709A7442F210721A82FFF7FD
:1086F000AFBF00BFE00C0020014B1872704700BFF5
:10870000E00C002008B503F0D1FE044BDA68824289
:108710002ABF987C002080F0010008BDE00C0020FA
:108720002DE9F3470446052900F2A280DFE801F0B5
:10873000037D6A7A819BD0F8AC32002B50D090F840
:108740007232002B4CD090F85C32032B48D190F859
:1087500069A00AF0EAFF064694F81002FFF70EFB44
:10876000804606445046D4F8AC7204F083FB3F1AAE
:10877000504604F087FB00F2E7325046D4F8285206
:108780004FF47A79B2FBF9F2BF1A04F073FB2D1A99
:10879000504604F077FB00F52340A130B0FBF9F020
:1087A0002B1A5A08B6B2603B08F5C86829327343E1
:1087B0001FFA88F8B3FBF8F360335908A2EB5303B0
:1087C0009F4202D30A44974201D905F089F9A06972
:1087D000314604F0C9FE0023C4F8640284F8723202
:1087E000254B9B7C03F0FF0263B9B4F81C12009286
:1087F00001232046FFF7D0FA38B140F2DC61302087
:10880000FDF776F9042384F85C3204F00DF806F0E5
:108810007DFCB4F8A020A4F86E220023A4F8A232B4
:1088200084F8713202B0BDE8F087032380F85C322F
:10883000F8E703F035FE0546C4F8AC0294F8690089
:1088400004F018FB854202D24FF46871D7E794F820
:108850006900D4F8AC5204F00DFB074BDA681544FC
:108860002D1ADD60DEE702B0BDE8F04709F0B6BFC3
:1088700040F26F71C3E700BFE00C00202DE9F84320
:1088800006460C4615468ABB03F010FE0121D4E9CA
:108890004089074684F8E850D4F8CC0084F8D050DA
:1088A00084F8E91001F010FAD4F8CC00C0E9A489EA
:1088B00094F8C83080F8A432C0E9A689C0F8A8723C
:1088C00009F0A0FF20B140F21F713020FDF710F930
:1088D00003F0AAFF06F01AFC074994F8C8003246D4
:1088E00004F0E0FD28B940F28271EEE740F29971A0
:1088F000EBE7BDE8F88300BF85F20000014B18826A
:10890000704700BFE00C0020F0B5070CA7F5AA42A5
:10891000144B543A012A03EA90231FD927F400404C
:1089200042F6AA22801A18BF0120002216211646FC
:108930001F2487EA060562EA0505013510D0DD032C
:10894000ADB245EA5606E503ADB2013945EA520239
:108950004FEA53034FEA5404EBD1F0BD0020E4E7A3
:108960000020FAE7E0FF3F0010B501210020FDF7ED
:10897000D3FC044670B90121FDF78EFC044620B9F2
:1089800040F20E313920FDF7B3F8034B93F9001094
:1089900009F016FC204610BDF80C0020304BF0B555
:1089A0005A88B0F85C70B0F85A609D88974228BF2A
:1089B0001746964228BF16461B2E85B00C462ED071
:1089C000B5F5A47F2DD040F648039D4201A928BFEC
:1089D0001D460AF015F9BDF80A309F4228BF1F4610
:1089E000BDF80C30E780AB4228BF2B462381BDF891
:1089F00006309E4228BF1E46BDF8083066809D4264
:108A000028BF1D46A580FF232370E3881B3B9BB234
:108A1000E02B08D940F2A4513920FDF769F81B2F4B
:108A2000CED105B0F0BD63881B3B9BB2E02B02D9D1
:108A300040F2A651F0E72389A3F5A4739BB2B3F5E6
:108A4000E06F02D94FF4B561E6E7A388A3F5A473FC
:108A50009BB2B3F5E06FE4D940F2AA51DCE700BF66
:108A6000F80C002008B50AF079FF00F063FF00F071
:108A7000E3FB0BF018FB01F0C1F901F0E5FE01F09A
:108A8000D5F9084B1B224FF4A4715A809980064BEC
:108A900006499A8000221960DA825A821A835A742F
:108AA00008BD00BFF80C00201011002003021B00BD
:108AB000044B41F64C52C3E902221B221A74FFF701
:108AC000D1BF00BF101100202DE9FF41344DAB682C
:108AD000044640F8303F09F0F6FE064600F09CFBE5
:108AE00010F0200F08BF1B222B7C1DBFAA886988AD
:108AF000A4F85A10A4F85A2084F83830A4F85C205E
:108B0000668700F089FB8B0706D5012302A88DF844
:108B10000830039409F0D2FFAE7CEF7CB5F81480E6
:108B200041F64C53A36116B900F07CFB064657BBD7
:108B300000F078FB074646B338B302A920468DF80B
:108B400008608DF80970ADF80A800BF014F86B78A6
:108B500001932B7800936A88AB8804F1140104F127
:108B60001000FDF74BFC236913B940F27B5114E070
:108B7000636913B940F27C510FE0002004B0BDE8F6
:108B8000F0810920FAE7002ED7D120880021FDF7D7
:108B9000D9FB0028F5D040F26A513920FCF7A8FF34
:108BA00010110020F7B505460E4609F03CFB0028E1
:108BB00073D0284609F018FC40B1B6F80130013BEB
:108BC0007F2B03D91224204603B0F0BD284609F0BC
:108BD0000FFC08B90C24F6E7284609F035FF0028F9
:108BE000F8D1284609F0DDFA04460028F2D12846DB
:108BF000FEF706FF0028E5D0B6F80170F17842F2E2
:108C0000107328465F4309F0DCFB284609F0E4FBBB
:108C1000014658B93A462846FFF778FC0446002832
:108C2000D1D041F607013920FCF762FF21460DF152
:108C30000600FDF7F9FA064668B3214601F044F84C
:108C4000BDF8063033802846314609F0E7FB284658
:108C500009F0D4FB98B9284609F0D2FB014630460A
:108C6000FFF732FF04460028ADD13A463146284688
:108C7000FFF74CFC044620B141F62A01D3E701215D
:108C8000EDE7074B9B68002B9DD0024606F5A171CE
:108C90003046984797E70D2495E7422493E700BFB5
:108CA000F80C0020034B5A8802801B788370002048
:108CB000704700BF1011002037B583781A2B054686
:108CC00009D8042B05D9012202FA03F3134A1342EF
:108CD00005D112241AE0292B01D03B2BF9D1288889
:108CE000B0F5706FF5D269460AF095FE88B9019B20
:108CF00093F8402102F0FF046AB9AA7883F8412171
:108D0000FF2283F8402168460BF0A8F9204603B003
:108D100030BD0224FAE70C24F8E700BF2000380435
:108D20000188A1F11B039BB2E02B0CD84288A2F56D
:108D3000A4739BB244F24810834204D8034B002032
:108D400059809A8070471220704700BFF80C0020AD
:108D5000034B5A889B88028043800020704700BFE5
:108D6000F80C002038B504784278857804F00103C7
:108D700052EA030104F0020401D1112038BDBCB94C
:108D8000002DFAD0002B08BF144601E00024254630
:108D9000204609F0EEFE0028EFD0284609F0E9FE53
:108DA0000028EAD0054B00209C74DD749882E5E72A
:108DB000002BEBD114461D46EAE700BF101100203E
:108DC00013B5008869460AF026FE18B10224204631
:108DD00002B010BD019A92F85C32DBB292F8C82062
:108DE000002AF3D113F0FB0FF0D0019890F8523124
:108DF0000BB13A24EBE790F8F23003F0FF04002BBC
:108E0000F7D190F8E9309B0706D1012380F8523161
:108E100068460BF023F9DAE702490222EA300BF048
:108E200056F9D4E73BB70100F0B50778EF2F85B0CE
:108E300004460D4603D91225284605B0F0BDB0F80A
:108E40000130ADF80C309DF80C30DA063FD49E06A8
:108E500003F0030238D5002AEDD11807EBD463786C
:108E6000190711D42179E278E07942EA0122617987
:108E700042EA0142A17941EA0021207A41EA004117
:108E80008A42D8D81F2AD6D9627A013A062AD2D87D
:108E9000A27A032ACFD813F0040102D1023A012AA0
:108EA00003D8E27A012AC6D811B9A27C032AC2D813
:108EB00013F01001227D19D0012ABCD1227E012A93
:108EC000B9D8B1B91125B7E7032AC6D1B3E713F072
:108ED000600FB0D103F00F0203F00703052BBED0E3
:108EE000931E012BBBD9002AA5D1B8E7022AE5D1F0
:108EF000A1E7DA071FD46378227D03F0180108295F
:108F00001ED1022ADED11B0709D4E279A37943EAF4
:108F10000223227A43EA0243B3F5804FD2D8BFB28C
:108F200001213846FDF7F8F9064678B109F08CFDC5
:108F3000B8B10C2580E700F031F90028DBD1C1E79A
:108F4000022AE0D0A27E002ADDD0BBE7012138460C
:108F5000FDF7A2F9064650B3164B93F9001009F03D
:108F60002FF9304609F035FA21462870E074304672
:108F700009F07AF9637E0546002B3FF45DAF0028C7
:108F80007FF45AAF316B02466846FDF7FFFA306B4B
:108F90002A46012108F0FCFF316B68460422FDF7E8
:108FA000F5FA306B2A46294608F0F2FF44E7072518
:108FB00042E700BFF80C002070B50579042D8AB097
:108FC000034658D84488B4F5804F54D82B48465DA2
:108FD000284400214279857AC07BADF8041042F024
:108FE000100242EA460242EA850242EAC00202F068
:108FF0001F028DF80420BDF80420ADF80D201A885A
:109000008DF80F208DF81240120A240A8DF81110E5
:109010008DF814108DF810208DF813405A7B8DF8C0
:1090200015205A798DF816209A79D3F807008DF813
:109030001720B3F80B209B7B8DF81E307F238DF813
:109040001F3001238DF80C1006908DF82110ADF81B
:109050001C208DF820308DF8223003A88DF82310C5
:109060008DF824108DF825108DF8261001A9FFF732
:10907000DBFE0AB070BD1220FBE700BFD8A40300DE
:109080000278034672B1427862B142881A2A09D93D
:1090900082881A2A06D9044A006810609B88938047
:1090A000002070471220704710110020024B026808
:1090B0009A600020704700BF101100200378A3F1D0
:1090C0000A02112A9DBF024A002013741220704721
:1090D0001011002008B5052000F090F802F024FEE1
:1090E000014B024A9A6008BDF80C00209DF900006F
:1090F00008B5FEF76DFCFFF7F1FABDE8084001483E
:10910000FEF750BC040D002010B50B4C012384F871
:109110000231FEF765FC02F033F80AF01DFC04F2A0
:1091200003112046FDF70CFC002008F0D7FEBDE837
:10913000104000F0C9BF00BF040D002010B5064C60
:10914000064904F502700AF0B1FA04F50370044907
:10915000BDE810400AF0AABA040D00206800002003
:109160007000002010B5094C094904F502700AF09E
:109170009DFA04F5037007490AF098FA04F50470A3
:109180000549BDE810400AF091BA00BF040D002067
:10919000800000208800002078000020014B93F818
:1091A00002017047040D002010B5074C00F084FF49
:1091B000D4F808020AF072FAFFF77AFC01F0EEF830
:1091C000012384F8143210BD040D0020014B93F8E4
:1091D00014027047040D002010B5074CD4F80C029F
:1091E0000AF05CFAD4F810020AF058FAFFF73AFCD9
:1091F000002384F8143210BD040D0020C208054974
:10920000012300F0070003FA00F08B5C1843885438
:10921000704700BF10000020014BD3E900017047E8
:1092200010000020034B1868C0F30020400040F0FD
:10923000010070471000002008B504F0BFF9084A8B
:10924000002332F82310814205D302EB83039B787D
:10925000044A137008BD01330C2BF2D10023F7E749
:10926000ECA40300190F002010B544682388A4F86B
:10927000A03194F8683084F89F11012B06D0022B9E
:1092800004D04FF420710620FCF732FC84F8A231A0
:1092900094F86930012B01D0022BF2D184F8A3316C
:1092A0000449022204F5CB700AF011FF002384F870
:1092B0004C3110BD2FA70100406808490388A0F871
:1092C000923190F8603080F8943190F8613080F8F5
:1092D000953100F289100AF0F4BE00BF45A70100E5
:1092E0002DE9F743456895F8A73095F8A680232B1C
:1092F00004460F462CD1A73538460AF08EFE0028CA
:109300004CD038460AF083FE814638460AF081FE8A
:1093100001460AF06CFA666848B396F868309842DD
:1093200025D096F84C21012A0CBF96F84E2196F8CC
:109330006420114232D0B8F1210F18D096F8612084
:10934000114214D153B94FF4B6710620FCF7D0FB8B
:10935000B8F1210F40F0B380A635CDE7042B01D042
:10936000042831D1984294BF00200120B0B948466A
:109370000AF03DFA002849D096F86930834245D07A
:1093800096F84C31012B0CBF96F84F3196F86530AA
:1093900019EA030F14BF01230023BBBB636893F8D2
:1093A0004C21012A19D11E212046FFF75DFFB8F19B
:1093B000210F1FD1FA786368182A83F8312110D061
:1093C00040F26D217E20C1E7082BCBD00828C9D000
:1093D00098422CBF00200120C8E7002283F84C21CE
:1093E000E5E7092283F8A62093F8E23093BB40F228
:1093F0007521E7E7002320462B700AF074FF3946F9
:10940000204603B0BDE8F0430AF091BF304601AA00
:1094100039460AF0F9F9D4F804800646F8B998F804
:109420004C31012B18D101462046FFF71DFF2E704D
:10943000636803F1A702954202D1002283F8A720B6
:10944000636803F1A70295424FF0000534D120462E
:109450000AF049FF002033E088F84C01E8E738467D
:109460000AF0D9FDA8F8BC026068B0F8BC32B0F8C8
:10947000A020013B9B1A9BB247F6FD72934207D98D
:10948000282380F8C9301049C0300AF01AFED7E707
:1094900090F8A7300D2B02D00A3B012B01D82A23CC
:1094A000EFE79DF8043080F8BE329DF8053080F873
:1094B000BF3225232B70C3E783F8E250CAE70220AE
:1094C00003B0BDE8F08300BF57B30100044B002296
:1094D00083F822204FF6FF729A84DA841A85704747
:1094E0001A0F0020054B9A8C824201BF002283F89C
:1094F00022204FF6FF729A84704700BF1A0F002097
:10950000014BD884704700BF1A0F0020094A034658
:10951000908C4FF6FF71884206D192F822100129F3
:1095200005D01A60012070470020186070470020A5
:10953000704700BF1A0F0020064B93F82220012A23
:109540001FBF0120DA8C83F822009A8408BF002014
:10955000704700BF1A0F0020014B1885704700BFED
:109560001A0F0020064B0246198D988C884205D1AF
:1095700093F8220018B11360012070470020704753
:109580001A0F0020094B998C1A8D914201D00020AE
:1095900070474FF6FF729A8493F82220002AF6D083
:1095A000002283F822200120704700BF1A0F0020FC
:1095B000054B998C1A8D914203BF93F82200B0FAA3
:1095C00080F04009012070471A0F002050B90A4A64
:1095D0001346012003F8010B0868C2F801008A88CD
:1095E0009A807047012805D1034B0A689A608A88DF
:1095F000D8719A81704700BF440F002048B90A4BC8
:10960000187880B1D3F80120B3F805300A608B8058
:109610007047012806D1044BD87920B19A680A60B6
:109620009B89F4E700207047440F002020B9054BC8
:10963000187800F00100704701280ABF014B002094
:10964000D879F6E7440F0020F0B51A4B93F800C024
:1096500006460025E8B2844501D8082029E093F8A1
:1096600053410A7893F854E193F85871624093F8A3
:109670005241744022444C7884EA0E04224493F808
:1096800055E18C7884EA0E04144493F856E1CA78C4
:1096900082EA0E02144493F857E10A7982EA0E0234
:1096A00022444C797C40D44205F1010503F10703C3
:1096B000D0D1F0BD520F002030B5094B01465C7887
:1096C000002203F58173D0B2844201D8082005E05E
:1096D00013F8015B8D4202F10102F4D130BD00BFED
:1096E000520F0020F8B5304C6278013AD2B22318FC
:1096F000824293F80251627032D0130101019E1C24
:109700008F1C2644274406F1100C56F804EB47F84A
:1097100004EB6645F9D1823382312344214403F1BD
:10972000100653F8047B41F8047BB342F9D1A61824
:10973000211896F8023181F802314FF4857706231B
:1097400013FB027213FB0070A318A258225004EB03
:10975000000C9B88ACF8043096F83A3181F83A3125
:109760002846FFF7A9FF08281CD12378013BDBB26C
:109770009D42237016D007224FF4A97612FB036393
:1097800012FB0560E218E3582350211893888B8060
:10979000937920788B71FFF78FFF08281CBF24185E
:1097A00084F80251F8BD00BF520F0020F0B5254DDE
:1097B00095F88A4189B0224605F28B11684607F078
:1097C0000DFC214668460AF0E8F80446B8B300EB01
:1097D0004001C9B202A8FCF71BFB601E95F893611B
:1097E000C0B2012495F88A2105E0731CB3FBF2F1A5
:1097F00002FB1133DEB206F120030DEB030111F879
:10980000203C002BF1D100EB400220326A4406EBF1
:1098100046032B4412F8187C83F8947112F8177CD5
:1098200012F8162C83F8957183F8962101F8204CD4
:109830000138AB19C0B2FF2883F88B41D2D109B0EF
:10984000F0BD00BF520F002070B5064688B00C4630
:10985000002A4ED0294A92F89331D01890F88B11F3
:1098600019B9FF212820FCF743F903EB4301114408
:10987000013391F89451E57091F8955191F8961152
:1098800061710021257180F88B1192F88A11B3FB68
:10989000F1F001FB103382F8933192F8B43123B91F
:1098A000174902F5D6700AF00FFC657905F03F05FF
:1098B00045F0400565710D220021684607F006FC61
:1098C000E3788DF80F3023798DF80E3004AA042345
:1098D000694630468DF80D5007F0EAF89DF81F30C4
:1098E00023709DF81E3063709DF81D30A37008B082
:1098F00070BD03216018FCF78BFAD6E7520F0020E9
:10990000AD070100044B5A78824286BF1B1893F8BA
:109910004A010020704700BF520F0020044B5A78C4
:10992000824286BF1B1893F842010020704700BF97
:10993000520F0020074B00224FF461711A705A70C9
:1099400083F8B52183F8B621A3F8B81183F8B421C0
:10995000704700BF520F0020014B83F8B6017047DB
:10996000520F00202DE9F047824617469846FFF730
:109970006BFE082889460546064603D0FFF79CFE85
:10998000082864D1344C6378072B62D8082D19D18C
:109990002678731C072E237003D96A212820FCF730
:1099A000A7F840F25312072313FB0623D9F800103F
:1099B000E150E218B9F804309380C6EBC6032344A3
:1099C00083F852A165786B1C290163704B1C07F169
:1099D0001002234412F8010D03F8010FBA42F9D125
:1099E000813108F11003214413F8012D01F8012FF2
:1099F0009845F9D1102140460AF01AF82544102163
:109A000085F8420138460AF013F885F80261667855
:109A100085F84A01002385F83A3131460F4809F0AC
:109A2000BCFF314605460E4809F0B7FF012D03D8AB
:109A3000002818BF0135EDB284F88A510025284668
:109A400084F89351FFF7B2FE2846BDE8F087122054
:109A5000FBE70720F9E700BF520F00209410002019
:109A60009C10002010B5064B5878013840B20028F1
:109A700000DA10BDC4B22046FFF734FE601EF5E7E1
:109A8000520F0020014B83F8B5017047520F0020A0
:109A9000014B93F8B5017047520F0020431E9BB253
:109AA0004AF2B71293429DBF024BA3F8B8010120BE
:109AB00000207047520F0020014BB3F8B8017047E7
:109AC000520F002010B50D4B5C78844214D9184415
:109AD00090F80201C0EBC0041C4494F852410C7091
:109AE000072140F2531411FB004158185B581360D2
:109AF00083889380012010BD0020FCE7520F0020D6
:109B00000246074810B590F8B54124B1417821B11B
:109B1000023002F053F9204610BD0C46FBE700BFAF
:109B2000520F00202DE9F74F2F4C9A46637883425D
:109B30008046894656D9231893F8425185F001058D
:109B4000F9B193F84A31E3B945F002070135BAF1AA
:109B5000000F18D1FA070AD5062101FB084104EBD2
:109B60000810524601F585718230FFF76DFEBB0784
:109B700034D504EB0810524649460230FFF764FE24
:109B80002CE02F46E3E794F893614FF0010B002D92
:109B9000E0D0A319019393F88B1199B90092DAB12F
:109BA00000F0CCFB06EB46012144019B81F89401B7
:109BB0004FEA102C009A81F895C1000C81F89601AB
:109BC00083F88BB194F88A310136B6FBF3F103FBCD
:109BD0001166F6B2013DDAE747F00407384603B0F4
:109BE000BDE8F08F0027F9E7520F0020074B5A78A5
:109BF000824209D91A1892F842212AB9062202FB98
:109C0000003000F58570704700207047520F00202B
:109C1000064B5A78824281BF1B1893F83A01B0FA7A
:109C200080F0400998BF0020704700BF520F00200D
:109C3000F8B50E46074606213046154609F0F8FEEF
:109C4000044640B10A482946427800F59D7007F065
:109C50003DFA2046F8BD3146384609F0BAFE0828DC
:109C60001FBF034BC018012480F83A51F1E700BF31
:109C7000520F002030B50024A0F85040B0F85440F6
:109C800042F210754C43B4FBF2F4A0F85440541E59
:109C900005FB0343B3FBF2F3A0F85230094BB3FBCF
:109CA000F2F30133A0F85830B0F84C3005FB034410
:109CB000436CB4FBF2F459438464B1FBF2F24264A6
:109CC00030BD00BF005A620270B504460D4659BB54
:109CD0004FF43A7207F0FAF9012384F8AE304923C1
:109CE00084F8F930042384F8FA306FF03B0384F8E9
:109CF000FB30672384F8FC306FF03F0384F8FD30BD
:109D00002B2384F8F830FE2384F836317F2384F83F
:109D1000A5301E4BC4F89030202384F8FE5084F800
:109D2000FF5084F8A43270BD012922D1002382693A
:109D3000A0F82E3280F82332154B1344B3FBF2F314
:109D4000C0F8D03040F6B833A0F8D4301146438C78
:109D50008830FFF78FFF0BF0F2F930B1E069FEF7C2
:109D6000D3FD10B984F80F52DDE7002384F80F32D9
:109D7000D9E70229D7D1B0F8CA32D0F8C422816914
:109D8000BDE870408830FFF775BF00BF00E0FCFF02
:109D90007FC3C901074B93F900301844142804DC31
:109DA00010F17F0F03DB40B27047142070476FF053
:109DB0007E0070470C11002007B57F230DF10700CE
:109DC0008DF8073002F0E4FE9DF9073068B10A4AC9
:109DD0005078404243FA80F0142808DC10F17F0FDD
:109DE00007DB40B203B05DF804FB1846FAE7142025
:109DF000F8E76FF07E00F5E70C110020024B00221F
:109E00001A705A70704700BF0C110020054BFF22DA
:109E10001A70054A016811600179117100221A70E7
:109E2000704700BF0E1100201800002007B5064B38
:109E3000186800901B798DF804306846FFF7E6FF3C
:109E400003B05DF804FB00BF51F4030008B50378CC
:109E500001F00F0223F00F0313430629037003D808
:109E6000034B5B5C437008BDB0212A20FBF740FE2A
:109E70001CA503000346407850B1DA783A2A06D888
:109E8000044B1344DB791B1A584258417047012098
:109E9000704700BF1CA503003A2908B5C17004D85B
:109EA000064B1944CB79437008BDFF2904D040F21A
:109EB0007F412A20FBF71CFE0123F4E71CA50300C9
:109EC0002DE9F04385B0894602A91446984609F069
:109ED000A2FD054600283CD1039E34B9012486F832
:109EE000AD40204605B0BDE8F083376921463846CD
:109EF00007F0F7FD014670B3194B5B88A3422CD3E2
:109F000001AA384607F042FF019B1D809D7096F81C
:109F1000AD300198002B0CBF4946022109F0C8FF63
:109F2000019822464146033007F058F8214638464A
:109F300007F00CFE044618B97C212B20FBF7D8FD56
:109F400002A80AF08BF8039BA3F81A5286F8AD50CA
:109F5000C7E70124C5E70446C3E72C46C1E700BFB5
:109F600010110020024B987DC04300F001007047A3
:109F700010110020034B987D80F00200C0F34000D8
:109F8000704700BF1011002010B5094C14220021A9
:109F9000204607F09BF81222002104F1140007F07C
:109FA00095F801232373231DC4E9003310BD00BFBE
:109FB0002C1100207FB505460C4619B9FF21102051
:109FC000FBF796FD03888B8000234B724669304671
:109FD00007F0CEFE014610B94FF48471EFE701AAF5
:109FE000304607F0D3FEE08010B940F20D11E6E7ED
:109FF000FB2802D940F20F11E1E7019809F060FF58
:10A00000012801D0022805D12072206828B94FF418
:10A010009371D4E740F21F11D1E70199E28803312F
:10A0200006F0DCFF304607F0B9FE10B940F22B1104
:10A03000C5E70021304607F0EDFD10B94FF49871E7
:10A04000BDE70B4BDA7D82B11A8B2888013A02A951
:10A050001A8309F0E0FC10B140F23911AFE7039A1E
:10A06000B2F8BE300133A2F8BE3004B070BD00BFFC
:10A070001011002010B520B940F25D211020FBF72F
:10A0800037FD41600272EFF3108472B6094B1A1D5E
:10A090000260596819B1097A012908BF1A601A6863
:10A0A0001060186004B962B6BDE8104093F826004D
:10A0B00006F02ABE2C110020024B83F82600FFF781
:10A0C00063BF00BF2C110020014B024A1A60704789
:10A0D00090000020B50F0100F7B54C4E4C4F0546DF
:10A0E00073681B7A0F2B06D1FB7D23B13B8B13B911
:10A0F000002003B0F0BD3369A3B11B7A93B134697A
:10A10000002CF5D0237ADBB205222272023B0D2B04
:10A1100073D8DFE803F018324772727250727272AD
:10A12000727272657468237A012BE1D0EFF31083A9
:10A1300072B672681268726003B962B6237A002B35
:10A14000D9D03461DEE7636823B94FF4DB711020A6
:10A15000FBF7CEFC2046294698470420EFF31083F6
:10A1600072B6227A052AD1B201D0002948D1002244
:10A17000227232619BB962B611E0636813B940F292
:10A18000BF11E4E72946204698470346C3F3072357
:10A19000012BADF80400C0B2E0D1032323720028E4
:10A1A0009ED0A6E7636813B940F2C911CFE72046F5
:10A1B00098470020D2E763680BB9D421C7E70B2288
:10A1C0002A701A88A5F803200024012218696A71F0
:10A1D000AC71AA70214607F01DFD3461042088E7A8
:10A1E000606810B940F22921B1E70A4B29461B6883
:10A1F00098470023336102207BE740F23221A6E733
:10A20000002B7FF46DAF62B66AE700BF2C1100200F
:10A2100010110020900000200448037F23B9044956
:10A220000222143009F041BF704700BF2C110020FA
:10A230009DB001001B234FF01B12838403848261B5
:10A240008382C260038539B94FF4A473034AC3847F
:10A250004384C261C3820261704700BF4801480164
:10A2600003460846B3F85420B3F848109142F0B5BD
:10A2700028BF1146B3F84C40B3F85620B3F8445009
:10A28000DF8FB3F84260D987A24228BF2246B3F8D5
:10A290004640A3F84220944238BF14468D4238BF4E
:10A2A0000D468F42A3F84450A3F846402DD1B61A6C
:10A2B00018BF0126B3F84A50B3F85040B3F852E043
:10A2C000B3F83CC0B3F84070A54228BF2546B3F8A8
:10A2D0004E409D87744528BF7446AC45A3F8404066
:10A2E00002D1A74200D196B11B88A0F80930A0F88E
:10A2F0000B50A0F80D40A0F80F10A0F81120BDE8F9
:10A30000F0400349022209F0E2BE0126D2E7F0BD87
:10A31000E1B001000B8BA2F80B304B8BA2F80D3093
:10A320008B8BA2F80F30CB8BA2F809000249A2F860
:10A330001130104609F0C5BE21B10100094AD2E929
:10A340000003434083EAB01181EA43214FEAF3431B
:10A350005360054B116058434FEAF06000EB8000FA
:10A36000704700BF54110020BB79379E094AD2E9DB
:10A370000203434083EAB01181EA43214FEAF343E9
:10A38000D360054B916058434FEAF06000EB8000CA
:10A39000704700BF54110020BB79379E38B50A4C76
:10A3A00004F1080508212846FBF732FDD4E9022311
:10A3B0001343F7D0FFF7DAFF2060FFF7D7FF2368DA
:10A3C00060600343F6D038BD5411002070B50446D8
:10A3D00040680D4690F8A72001230021883009F03D
:10A3E00033FB20B32846666809F0B7FDA6F8BC0227
:10A3F0006068B0F8BC32B0F8A020013B9B1A9BB259
:10A4000047F6FD72934208D9282380F8C9300949DC
:10A41000C03009F056FE002070BD00F2BE21284673
:10A4200009F096FD63680A2283F8A720F3E701206C
:10A43000F2E700BF57B30100F8B5044640680D4687
:10A4400090F8A72001230021883009F0FDFA0028A8
:10A4500049D00021284609F04EFD28B9294620465A
:10A46000BDE8F84009F063BF6068B5F80D30B0F89A
:10A47000A020A0F8BC32D24313449BB247F6FD7231
:10A48000934208D9282380F8C9301849C03009F010
:10A4900018FE0020F8BD284609F024FD09F08FFBC6
:10A4A0006768C7F8C40206460146287909F08BFBA5
:10A4B000A7F8BE023146B5F80500676809F08CFBC5
:10A4C000C7F8C0022846666809F00FFDA6F8C80262
:10A4D0002846666809F00CFD6368A6F8CA020D22DA
:10A4E00083F8A720D5E70120D4E700BF57B30100C8
:10A4F00008B5406890F8A730152B04D04FF492713E
:10A500001F20FBF7F5FA012380F8E730162380F8C7
:10A51000A730BDE808400349022200F5337009F076
:10A52000C4BD00BFFBB40100436830B5D3F8984008
:10A5300014F001001FD14D68104A8968A3F8E400A7
:10A540002A40C3F8F820C2F3076242F0080221F45F
:10A550001E5121F0180183F8FB2093F8E62009042E
:10A56000090C013244F00104C3F8FC1083F8E62022
:10A57000C3F8984030BD0120FCE700BF2F4904F725
:10A5800070B54468037894F8A6200D4604F188005D
:10A59000072109F059FA80B36968AA68194B22F4B7
:10A5A0001E520B40C4F8F83022F01802C3F30763C0
:10A5B00043F008031204120C84F8FB300023C4F8A3
:10A5C000FC2084F8E23084F8A63094F8AC2102F044
:10A5D000FF06A2B92388A4F8AE3184F8AD616B6898
:10A5E000C4F8B031AB680849C4F8B431022204F5AC
:10A5F000D27009F05AFD304670BD0126FBE71E46B9
:10A60000F9E700BF2F4904F72DB60100406890F824
:10A61000AC315BB90388A0F8AE311A2380F8AD31B4
:10A620000349022200F5D27009F03FBD704700BF18
:10A630002DB6010010B50446FEF7EEFD21F41E51C3
:10A64000044B21F0180109040340090C6360A16068
:10A6500010BD00BF2F4904F737B50C464568FEF71B
:10A66000DBFD0A4B95F8F82021F41E5121F018016A
:10A67000034009040093090C13408DF80030019148
:10A680006B4603CB6060A16003B030BD2F4904F777
:10A6900038B54468037894F8A6200D4604F1880084
:10A6A000082109F0D1F918B9D4F89830980741D4A5
:10A6B00094F8E93099071AD4284609F070FC84F818
:10A6C000F300B5F80530A4F8F430B5F80730A4F875
:10A6D000F63094F8E93043F0020284F8E920DA0712
:10A6E00005D51549022204F1EA0009F0F0FC94F8BE
:10A6F000E930DB0713D4D4F8983013F0020203D00A
:10A7000050214020FBF7F4F943F00203C4F89830DD
:10A7100094F8E630A4F8E420013384F8E63094F8A5
:10A72000A630012B4FF0000003D184F8A60084F876
:10A73000E20038BD0120FCE73BB70100044B9B68F9
:10A740005843C3F580534B4303EB2030704700BFA1
:10A750006411002070B545680446FFF72DFB7F2883
:10A76000014685F8A5000ED0D5F89000FFF7E6FF6A
:10A77000054BC5F890001B7B2BB1044B20461B6892
:10A78000BDE87040184770BD64110020980000209B
:10A79000014B1B68184700BF94000020F0B5204E05
:10A7A000054630780024147080B1431E7768DBB210
:10A7B000181B01280BDC07EBC40057F83460406815
:10A7C000884208BFAE4212D114700120F0BD1819A2
:10A7D000461007EBC60E57F836C0DEF80460AC45ED
:10A7E000C0F347008E412CBF03460446E0E7B54264
:10A7F00071EB000002D214700020E7E707EBC30002
:10A8000057F833404068884208BFAC4201D113700A
:10A81000DBE7A542814128BF01331370ECE700BF9D
:10A820007411002010F0070208B503D063214820FE
:10A83000FBF75EF918B1034B197258601A70C80023
:10A8400008BD00BF74110020014B00221A70704730
:10A8500074110020014B187A704700BF741100205A
:10A860002DE9D34309F0AAFF0DF1070207460E4672
:10A87000FFF794FF98B9114C2278237A93420ED0B7
:10A88000616813466FF0604E9DF80700984209D347
:10A8900001EBC003C3E9007601322270012002B04F
:10A8A000BDE8D08303EB0E0001EBC000D0E90089C6
:10A8B000013BC0E90289DBB2E6E700BF741100206A
:10A8C00037B509F07BFF0DF10702FFF767FF04467C
:10A8D000A0B10C4A9DF8070013785568013BDBB224
:10A8E00013701A1AD2B2411CD200834238BF002220
:10A8F00005EBC10105EBC00006F02AFB204603B0C2
:10A9000030BD00BF7411002038B5436893F8A7200C
:10A910001C2A044604D040F2B2413120FBF7E8F88B
:10A9200093F8E8101D88002283F8E72003F2022044
:10A9300071B10C4983F8E82083F80B22A3F80C527C
:10A94000022209F0B2FB6368002283F8A72038BD19
:10A95000012283F80B1283F80E220349A3F80C524C
:10A960000222EEE7E7B40100CFB40100172870B56A
:10A9700003460D460CD80D280ED9A0F10E01092969
:10A980000AD8DFE801F00B0909090B090B09110BC3
:10A99000A0F12303022B25D9002070BDBDE8704033
:10A9A0000021184609F022BF124C606890F8A630CA
:10A9B000212B0AD129462046FEF756FC6368002267
:10A9C00083F8A62083F8E220E6E72E2BE4D190F866
:10A9D000A72001230B21883009F036F80028EDD19B
:10A9E0002A21E8E7044B1B68002BD5D0BDE8704056
:10A9F000184700BF8011002078020020114B097910
:10AA00000246586890F8A630212B11D02E2B0FD07B
:10AA1000282B0FD0042B0FD00F2B0FD01D2B0FD0B6
:10AA200090F8A730232B14BFFE201720FFF79EBFFE
:10AA30001620FBE72320F9E70E20F7E71220F5E7C1
:10AA40001420F3E78011002008B5084B586890F8EF
:10AA5000AC304BB990F8A72001230621883008F0CC
:10AA6000F3FF00F0010008BD0120FAE7801100208B
:10AA7000F8B52D4B1A89402842EA00021A8105D107
:10AA800058680421BDE8F840FDF74ABE00F0030213
:10AA9000032A04D140F6C1213120FBF729F810F038
:10AAA000020418BFD960C50705D5CA781961062AFE
:10AAB0000DD00B2A18D02CB1DA68D278052A1FD015
:10AAC0000B2A2AD0820644BF08221A75F8BD5A689C
:10AAD00092F8A7101829EED1002600270121C2E91B
