:10000000005D00205D1E000015570000491E000025
:10001000491E0000491E0000491E000000000000AB
:100020000000000000000000000000005D1F000054
:10003000491E000000000000491E0000491E00008B
:10004000DD200000DD200000DD200000DD200000BC
:10005000DD200000DD200000DD200000DD200000AC
:10006000DD200000DD200000DD200000DD2000009C
:10007000DD200000DD200000DD200000DD2000008C
:10008000DD200000DD200000DD200000DD2000007C
:10009000DD200000DD200000DD200000DD2000006C
:1000A000DD200000DD200000DD200000DD2000005C
:1000B000DD200000DD200000DD200000DD2000004C
:1000C000DD200000DD200000DD200000DD2000003C
:0C00D000DD200000DD200000DD2000002D
:1000DC0053B94AB9002908BF00281CBF4FF0FF31A3
:1000EC004FF0FF3000F00CB8ADF1080C6DE904CE08
:1000FC0000F008F8DDF804E0DDE9022304B07047F5
:10010C00704700BF2DE9F04786468C460846089E8E
:10011C00154674461946002B40F0C2808542B2FA4F
:10012C0082F245D94AB1C2F1200300FA02FC2EFA40
:10013C0003F3954043EA0C0C94404FEA154EA8B2D9
:10014C00BCFBFEF8230C0EFB18CC08FB00F943EAB1
:10015C000C43994528D9EB1808F1FF3704D299457F
:10016C0002D9A8F102072B44A3EB0903A4B2B3FBF9
:10017C00FEFC0EFB1C330CFB00F044EA0344A042D3
:10018C0014D92C190CF1FF3304D2A04202D9ACF1D2
:10019C0002032C44241A43EA07401EB1D440002326
:1001AC0034607360BDE8F0874746DDE76346F1E7EE
:1001BC0092BB431B01214FEA154EAFB2B3FBFEFCC1
:1001CC00200C0EFB1C330CFB07F840EA034398454C
:1001DC0062D9EB180CF1FF3004D2984502D9ACF17E
:1001EC0002002B44A3EB0803A4B2B3FBFEFC0EFBF2
:1001FC001C330CFB07F744EA0344A7424ED92C19D5
:10020C000CF1FF3304D2A74202D9ACF102032C4407
:10021C00E41B43EA0040C0E7C2F1200320FA03F1DB
:10022C00954090402EFA03F303434FEA154EAFB2BC
:10023C00B1FBFEFC0EFB1C10190C0CFB07F841EA81
:10024C000041884504FA02F422D969180CF1FF30F8
:10025C0004D2884502D9ACF102002944A1EB080173
:10026C009BB2B1FBFEFC0EFB1C110CFB07F743EA27
:10027C0001439F420ED9EB180CF1FF3104D29F427F
:10028C0002D9ACF102012B44DB1B41EA004192E79D
:10029C006046E3E76146F7E76046A3E76346B7E7E6
:1002AC00834206D916B9002108467BE7C6E900E06F
:1002BC00F9E7B3FA83F78FB9834201D3724508D8B3
:1002CC00BEEB020460EB030301209C461EB9002127
:1002DC0068E73846FAE7C6E9004CF8E7C7F1200CA6
:1002EC00BB4022FA0CF41C432EFA0CF120FA0CF34E
:1002FC00B84001434FEA14490EFA07F5B3FBF9F87D
:10030C001FFA84FE09FB18300B0C08FB0EFA43EAAB
:10031C0000439A4502FA07F240D9E31808F1FF307E
:10032C0004D29A4502D9A8F102002344A3EB0A0394
:10033C0089B2B3FBF9F809FB183308FB0EFE41EA4E
:10034C0003418E452CD9611808F1FF3304D28E4538
:10035C0002D9A8F10203214443EA0040A0FB029811
:10036C00A1EB0E014145CE46434602D306D14D4585
:10037C0004D2B9EB020E68EB04030138002EA6D0B0
:10038C00B5EB0E0261EB030101FA0CFC22FA07F348
:10039C004CEA0303F940C6E9003198E74046C5E74B
:1003AC004346D9E7F0B52E4B2E4AC3F800262E480B
:1003BC00C3F8042685B0C3F808264921C3F80C26D7
:1003CC00C3F81026C3F81426C3F81826C3F81C2645
:1003DC0005F018F900F078F801A800F0FBFC234BAD
:1003EC001B68834204D02248452105F00BF9FEE737
:1003FC00039A2048492105F005F91F48492105F0C9
:10040C0001F94FF44041002005F066FC044620B190
:10041C001A48452105F0F6F8FEE769469DF80800F4
:10042C0000F030F8009B039D1D44019B1E8902F0D7
:10043C0039FDAF1900F0EAFF00F0BEFF01F044FDFA
:10044C00AB5983F3088884F31488BFF36F8FBFF321
:10045C006F8F7B6898470A48452105F0D3F8FEE773
:10046C00000001403546526EFC780000400100202F
:10047C001579000038790000677900008C7900004C
:10048C00BF79000008B5024638B105480023452164
:10049C0005F0B8F86FF0150008BD0860FCE700BF68
:1004AC00E279000021B1012906D06FF015007047E8
:1004BC00044B53F830007047024B03EBC0035868F1
:1004CC00704700BF3875000002484FF4C05103F06C
:1004DC00B5B900BF740F00202DE9F04FF9B0DDE97C
:1004EC008489DFF8BCB1869FDBF8005038A816462B
:1004FC001C4606F00AFD002138A803F0D5FAB8F125
:10050C00000F07D0B9F1000F04DD4A46414638A868
:10051C0006F004FD33897289D6F80CA013449A4472
:10052C004FF00008C24544D80DA938A806F035FD97
:10053C0027B120220DA9384605F046F90023009377
:10054C0022464FF6FF73314607A804F039FD80466A
:10055C0060BB20460C9E00F0D9F9864226D8DFF805
:10056C0044914FF0FF370DF1160305AA06A907A811
:10057C0004F074FD002819DB40F08A80BDF8166089
:10058C00102E2ED1BDF81460202E0FD106993346B3
:10059C0038AA204605F044F840B9324638A90DA8CF
:1005AC0004F0A8FD404B1B68834217D0DBF80050C9
:1005BC0071E0839B829AAAEB0809994528BF99465A
:1005CC004B464146204605F02BF80028EED1829987
:1005DC004A4638A806F0A2FCC844A3E74FF001082D
:1005EC00C1E7012E35D1BDF81430202BDED8069989
:1005FC0038AA204605F014F807460028D6D19DF8F5
:10060C0014A0BAF1200F02D94FF0FF37ABE7D9F89D
:10061C000030264E0393039B9F42F5DA1DA806F08B
:10062C0074FC00211DA803F03FFA726856F8081BF1
:10063C0012681DA806F072FC15A91DA806F0ADFCE9
:10064C00524638A915A805F0AFF800288BD0013711
:10065C00E1E7202E87D17B1C85D0D9F80030BB4236
:10066C00D2DDBDF81430B3F5807F9FD1069938AA3E
:10067C00204604F0D5FF002898D1FFB2BDF8143005
:10068C00009738AA31460DA800F012F80546BBE7D2
:10069C00B8F1000F8AD0284679B0BDE8F08F00BFC2
:1006AC00040000204075000040010020447500004B
:1006BC002DE9F04FDFF8D4A1ADF5417D07462AA80E
:1006CC009DF828B3DAF800501E468946904606F08D
:1006DC00D5FB092201212AA803F062F96C4B53F8CF
:1006EC003B40059403EBCB0380AA5B681B681C445E
:1006FC002146302305A805F01DFC002840F0BE80E3
:10070C00059B809A13449C4240F0B8802CAA214649
:10071C0005A805F023FC002840F0B0800DF1B80BC3
:10072C005A46214605A805F019FC0390002840F014
:10073C00A5802CA805F030FF059A2B90944240F030
:10074C009D80039BCDF804B000931A462CA92AA8CF
:10075C0006F051FB002840F091802AA803F036F9EE
:10076C00002840F08B802CA805F016FF2B902AA8AF
:10077C0006F08EFB864240F08180B6F5807FDAF879
:10078C0000507BD1B9F1200F78D180AA41462AA81C
:10079C0003F042F90446002870D19DF8FF32BC2BBF
:1007AC006CD106900DF59079DF260FA806F0ADFB05
:1007BC0000210FA803F078F920220DF2DF210FA8F9
:1007CC0006F0ACFB042206A90FA806F0A7FB07A9AC
:1007DC000FA806F0E2FB202E9DF81B30B046A8BFF8
:1007EC004FF0200801334846424607A9A6EB0806FD
:1007FC008DF81B3004F0E8FF002EC144D5DC48AB6B
:10080C0080AA184600219C46067812F801EB0131AB
:10081C0086EA0E06DF2900F8016BF5D11A7802F092
:10082C007F021A7013F8016B46BB0134BE2CF9D150
:10083C009CF8BE30012B21D10FA806F066FB314687
:10084C000FA803F031F9134908220FA806F066FB34
:10085C00394620220FA806F061FB20220DF2DF1191
:10086C000FA806F05BFB07A90FA806F096FB202249
:10087C000DF2DF2107A804F03DFC05462AA806F07E
:10088C0009FB28460DF5417DBDE8F08F04000020E2
:10089C0044750000087A0000094A0B78400052F8B1
:1008AC0020108B4209D0013052F82000834214BF33
:1008BC004FF0FF304FF4C07070474FF4C07070476A
:1008CC004C7500001FB50F4B13F830000C4601F0AF
:1008DC0011F950B92068816810236A46103904F068
:1008EC009FFE28B1206804F09AFE4FF0FF3006E01E
:1008FC0005491022684604F057FF0028F2D104B0D5
:10090C0010BD00BF4C750000EC78000013B5044618
:10091C0004F0F7FB6A460146204604F038FB30B180
:10092C000448452104F06EFE002002B010BD009872
:10093C00FBE700BF107A00002DE9F041364B88B080
:10094C00064600200D461C68FFF7ACFD06A9C0B298
:10095C0001F0D0F8002858D12946FFF7A3FD2C242C
:10096C0007A9C0B204FB056401F0C4F8002833D019
:10097C002C276F4306EB0708069BD8F8101011F0D4
:10098C00100138D14FF480720192244A0092CDE9C3
:10099C000311224602910846FFF79EFD0446204BA8
:1009AC00F25906989A420CD1D8F80C20B8F80830B5
:1009BC009B1806D28268934203D21A4B1B68A3423F
:1009CC0020D035B38268002104F054FE164A174833
:1009DC00452104F017FE13E0079804F066FE074665
:1009EC00079804F01CFE631EE21C13F8011FB942A9
:1009FC00BED19342F9D11DB10699304604F06BFC7F
:100A0C000B4B1C68069804F00AFE204608B0BDE8A3
:100A1C00F081084ADBE700BF0400002074270020A7
:100A2C003DB8F39640010020537A00005D7A000037
:100A3C00000000204B7A00007FB50D4604460021D3
:100A4C002846CDE9021104F005FC28B32368194EA1
:100A5C00B34203D103AA204604F091FBE36AB342EC
:100A6C0004D102AA0121204604F089FBDDE90232FF
:100A7C00934288BF0393039BAB60039A294620469D
:100A8C0000F0A2FB0C4B1A68002A03DD0B4857211F
:100A9C0004F0B8FD04B070BD01A9FFF713FF019875
:100AAC0005F1080104F038FBAB680198039304F0DE
:100ABC00B6FDE2E73DB8F396A40D0020857A000060
:100ACC002DE9F84FDFF870B01C4C1D4D884691464F
:100ADC009A4600260B9B9E4201D300200FE00B9BF5
:100AEC00154A9F1BB7F5806F28BF4FF480673B46B4
:100AFC0006EB0A01404604F093FD10B10120BDE85D
:100B0C00F88F0A993B465A467118484604F09DFDE9
:100B1C000028F3D1C4F800563E44C4F80456C4F877
:100B2C000856C4F80C56C4F81056C4F81456C4F839
:100B3C001856C4F81C56CDE74409002000000140AB
:100B4C003546526EF0B5994B43620E46984B036591
:100B5C00002189B004460846FFF7A4FC04F12001EB
:100B6C000546C0B200F0C6FF0346E8B90121FFF705
:100B7C0099FC04F14C010546C0B200F0BBFF0346E2
:100B8C00E0B9204604F03CFB0546C8B900221146EA
:100B9C00204604F0DEFA054660B386480022572151
:100BAC0004F030FD01239CE00022CDE900238248B3
:100BBC0000232A46452104F025FDFEE70122F4E737
:100BCC007E488022572104F01DFD01239D4284F8AC
:100BDC005830DBD194F858308DF81730042B00F2D4
:100BEC008380012B00F2878000F09A80FF2384F829
:100BFC00583095E0204600F0FFF90028D2D004A828
:100C0C0004F01FFB0146204604F0BAFB18B16C48F7
:100C1C002A465721C4E704A804F01CFB80F001010C
:100C2C0004AAC9B2204604F094FA02460028B4D1B2
:100C3C0004A804F00FFB054660BB04A92046FFF78F
:100C4C00FBFE9DF8173084F85830033B012B06D877
:100C5C00284600F0E5F810B1FF2384F858309DF8D1
:100C6C001730023B022B0BD8002000F0C3F838B130
:100C7C00FF2384F858305348452104F0C3FCFEE7A9
:100C8C0094F85830FF2BF6D004AA0021204604F02B
:100C9C0060FA87E79DF81770012F17D1104602F004
:100CAC008FF9831E022B05460DD839462046FFF7D7
:100CBC0043FE454B1B68984205D0444B1D68A84227
:100CCC0014BF0525012584F8585083E701212046DF
:100CDC00FFF732FE3C4B1B6898420CBF9DF8173057
:100CEC00052384F8583075E7052B7FF47FAF00207F
:100CFC0000F096F811E004A92046FFF79DFE94F849
:100D0C005830DA1E012A14D8002000F089F8002887
:100D1C007FF46CAF002000F06DF800287FF466AF14
:100D2C0094F85830FF2B07D12648452104F06AFC73
:100D3C00FEE7022BF4D1EDE70022012B244D0392A8
:100D4C0014D01146204604F004FA78B12D68102214
:100D5C0000210DEB020004F042FDE06C04F05FFC9E
:100D6C00206A04F05CFC284609B0F0BD0021204646
:100D7C00FFF7E2FD144F3B689842E7D12B6898428D
:100D8C00E4D0124B1B689842E0D0039B01330393D1
:100D9C00039B012B00D0FEE7206A04F0F6F83071BB
:100DAC00236A5B6834603D68B360D0E7440500207B
:100DBC0044010020437B0000B47A0000017B00005A
:100DCC006F7B0000997B0000400100200000002098
:100DDC000400002038B5064D044660220021284648
:100DEC0004F0FDFC21462846FFF7ACFE38BD00BFE1
:100DFC00440D002013B5094B01A913F8300000F085
:100E0C0079FE48B9019805F059F80446019804F0A8
:100E1C0006FC204602B010BD0124FAE75475000010
:100E2C001FB50F4B01A913F8300000F063FEA8B9F1
:100E3C00019802A902F06EF8044668B99DF80B30CF
:100E4C00032B03D1019805F007F80446019804F030
:100E5C00E6FB204604B010BD0124F7E70124F8E7B7
:100E6C00547500002DE9F34106460C4617461D4605
:100E7C000BB9002628E0184604F0ECF90028F8D14C
:100E8C006946FFF71FFD009838B90124009804F05B
:100E9C00C6FB204602B0BDE8F08101A904F03CF984
:100EAC000028F2D1009804F0BAFB3046019904F006
:100EBC00A3FA736A5E686B79012B21D1002CD8D10F
:100ECC002B68834298BF002621460020FFF7EAFAE0
:100EDC006946C0B200F00EFE0028D6D1009820233F
:100EEC003A46314604F09CFB04460028CDD1002D37
:100EFC00CCD03C680D4BE41A18BF4FF0FF34C5E75B
:100F0C00022BB6D12B68012B05D98342B1D8B4FA88
:100F1C0084F46409ADE7ACD1002CD5D0012CA8D158
:100F2C002C79023C18BF0124A3E700BF3DB8F3960F
:100F3C002DE9F04F074685B00C46014600201646B9
:100F4C00FFF7AAFC051E50DB3846E46D04F0D9F817
:100F5C005FFA84F96B1E09FB03084FF0000A4FF08F
:100F6C00010B4FF0FF349DB9BAF1010F03DD21489D
:100F7C00452104F047FB631C06D07F2C2ADC01348E
:100F8C0040F201133460B380284605B0BDE8F08F01
:100F9C006B1E00930DF10F0201234146384604F0FD
:100FAC003FFB031E019322DB01220DF10F0138469A
:100FBC0004F0EDFE019B40B15B4501D00AF1010A42
:100FCC00009DA8EB09089B46CDE7B4F1FF3F08BF95
:100FDC002C46F5E70223803C7371631004F0010486
:100FEC000133013433603471CEE70725CCE701259A
:100FFC00CAE700BFA57B000038B5816A426D9142FB
:10100C0008D0531C8B4205D01348572104F0FAFA30
:10101C00002038BD80291CD910485721F6E7446AB6
:10102C00056D04EBC30405EBC30564686D68AC4245
:10103C0002D00B485721E9E701339A42EFD1914294
:10104C0005D9436A03EBC2035B68A342F1D10120CB
:10105C00DFE700231C46F0E7C87B0000007C0000A3
:10106C002F7C000000B589B004A9022004F001FF18
:10107C009DF81020012A41D0254B2649032A08BF90
:10108C000B469DF8132002929DF8122001929DF8B8
:10109C001120214800924921204A04F0B3FA06A9F4
:1010AC00052004F0E6FE9DF81820012A28D0184BE4
:1010BC001849032A08BF0B469DF81B2002929DF885
:1010CC001A2001929DF8192000921348144A4921C4
:1010DC0004F098FA9DF81030012B13D19DF81230C2
:1010EC00032B0FD19DF81830012B0BD00D48492143
:1010FC0004F088FA022009B05DF804FB0A4BC0E743
:10110C00094BD9E70948492104F07CFA0020F2E7A1
:10111C005B7C0000647C0000787C00006A7C000032
:10112C00B97C0000C97C00005F7C0000E87C0000FA
:10113C0070B54B6814461E4A03F0FF23934286B0E9
:10114C0006460D462FD10B68012B2CD104A9204645
:10115C0001F0E0FE9DF81020012A26D0154B16490F
:10116C00032A08BF0B469DF8132002929DF812200B
:10117C0001929DF8112000921048114A492104F067
:10118C0041FA9DF81030032B0DD12146304604F066
:10119C00A2F8204604F060FEA968204603F0CAFFBE
:1011AC00204601F097FE06B070BD064BDBE700BF92
:1011BC00000100045B7C0000647C0000787C000073
:1011CC00B97C00005F7C00002DE9F04F164689B019
:1011DC0005460C467448492104F014FA3146284659
:1011EC0004F00AF96B6A824620465E6804F032F815
:1011FC00E8B1E86D03F080FFAF6A0023013F334490
:10120C00834201D2013FFAE7BA4510D36748572110
:10121C0004F0F8F907FB06F365480AFB0662572150
:10122C0004F0F0F90123E37109B0BDE8F08F06A9D1
:10123C00022000F05FFC07A9052000F05BFC079A78
:10124C0021462846FFF774FF6379012B4BD1DFF859
:10125C0064B1574641E02268C2F1010353449F42F6
:10126C003AD86B6A196853F8370003EBC703012AA5
:10127C0053F8083CA3EB0103A0EB0109049311D133
:10128C00079B0393E368022B08D04146284604F0E1
:10129C0022F822464146284604F053F80399284682
:1012AC0004F019F832464946404604F012F8049B03
:1012BC0042464146CDE900962846FFF701FC2146FF
:1012CC00284603F0D4FF23680133236020B1DBF8F8
:1012DC0000300133CBF80030013FDDF81880002FCF
:1012EC00B9D101232360022363710127BA45DDF8CC
:1012FC00189006D2484604F092F9079804F08FF93A
:10130C0092E723689F424DD36A6ADDF81CB052F80D
:10131C0037100491FB00083B11680391D1582A6DDA
:10132C00D0581368A0EB03082379012B38D1039B09
:10133C003246C91A4846059103F0CBFF0599009136
:10134C0043464A46594601962846FFF7B9FB2146C3
:10135C00284603F08CFF0223237118B1154A136839
:10136C000133136032464146584603F0B2FFDDE9C3
:10137C00032349469B1ACDE900865A462846FFF7B7
:10138C009FFB2146284603F072FF2368013323603C
:10139C000123237130B1074A13680133136001E054
:1013AC00022BDFD00137A1E7FF7C0000287D000075
:1013BC00577D0000A40D0020BFF36F8F72B6124B47
:1013CC004FF0FF32C3F88020C3F88420C3F8882084
:1013DC00C3F88C20C3F89020C3F89420C3F898204D
:1013EC00C3F89C20C3F88021C3F88421C3F888215A
:1013FC00C3F88C21C3F89021C3F89421C3F8982129
:10140C00C3F89C21704700BF00E100E0134A4FF085
:10141C00FF3301215160C2F84833C2F8083302F59A
:10142C00C0425160C2F84833C2F8083302F5983212
:10143C005160C2F84833C2F80833A2F508320021D3
:10144C00C2F80015C2F8083302F5E832C2F80835C4
:10145C004FF08042C2F80833704700BF00B0004024
:10146C00014B1B68184700BF0800002007B50B464E
:10147C00002102460091034800F014F903B05DF816
:10148C0004FB00BF6D1400002DE9F047058B0446EA
:10149C002807904611D4022905F0070540F0CD80AD
:1014AC00204603F0D5FF78B10138218B042811D8E0
:1014BC00DFE800F0C3106D85950001290CBF45F0E5
:1014CC00100545F02005258388F31188BFF36F8F35
:1014DC00BDE8F08701F0070AAA4500F0A6800027B6
:1014EC00B9463E46A368002B00F0BD8041F00801D0
:1014FC00218388F31188BFF36F8FA168002900F056
:10150C00BB800D68002900F0B780D1F80480334609
:10151C0052462046C047002D76D02B6829461D46E2
:10152C00F0E701F007035A1F012A1BD8002221F013
:10153C000701062B276889B2C4E9002209D13B4672
:10154C0003E0628B013262831B68002BF9D141F0FE
:10155C0002012183204603F07BFF00287BD041F061
:10156C00200177E0042B0AD121F0070189B22183F5
:10157C00204603F06DFF10B141F020012183218B37
:10158C0001F0070AAA4550D00027B946AAE72369FB
:10159C0021F0070141F00601062DD3F800902183BC
:1015AC002DD1B9F1000F40D041F00801218388F30F
:1015BC001188BFF36F8F3A492046C84729E021F0C4
:1015CC000701236941F0040189B2042DD3F804907A
:1015DC002183E6D000273E464FF0040A82E721F033
:1015EC000701236941F0050189B2052DD3F8089054
:1015FC002183D6D000273E464FF0050A72E700271C
:10160C003E464FF0060A6DE72B4687E7B9F1000F0F
:10161C00D1D14FF02003EFF3118883F31288BFF37D
:10162C006F8F238B23F008032383258BEA062ED59B
:10163C0025F01003238305F007056669218B002E26
:10164C00BFF66FAF00232768C4E9003321F0070110
:10165C0041F001012183218B01F0070AAA454FF0CB
:10166C0000097FF43FAF002F9BD041F0080121838C
:10167C0088F31188BFF36F8F002FC7D03D683946B0
:10168C0033465246204603F00FFF2F46F4E7AB06D5
:10169C007FF51AAF25F02003238305F00705FFE63D
:1016AC00E15400002DE9F04F8DB01D46531E8246CB
:1016BC00019103934FF00009039B5878252803F1FF
:1016CC00010419D11E4600204FF0FF3802360346A4
:1016DC000290444631780396392954D81F2914D8DE
:1016EC00002900F0EE8101992520D047019930782E
:1016FC00D04709F10209DFE7002800F0E2810199E7
:10170C00D04709F101090394D6E7A1F12002192A67
:10171C00E9D801A757F822F08D170000F316000046
:10172C00F31600008D170000F31600000D180000D2
:10173C00F3160000F3160000F3160000F316000079
:10174C00591800008D170000F31600006D180000EA
:10175C0019180000F31600002718000047180000A5
:10176C0047180000471800004718000047180000F1
:10177C0047180000471800004718000047180000E1
:10178C0008460136A6E7582900F0EB80A1F1630268
:10179C00D7B2172FA7D8172AA5D801A757F822F028
:1017AC00151A000093180000F3160000F316000041
:1017BC00F31600007318000093180000F3160000D5
:1017CC00F316000073180000F3160000F316000067
:1017DC00F316000049190000F3160000F316000080
:1017EC00E9190000F316000093180000F31600002E
:1017FC00F316000049190000F316000073180000DE
:10180C0001992520D04709F1010955E7029A02F008
:10181C00FE0202924FF00008B3E7002C0DDAB8F18B
:10182C00000F0DDA029A002A00F0438124EAE474D6
:10183C000A2202FB0414303CA3E7B8F1000FF5DBDD
:10184C000A2202FB0812A2F130089AE7B8F1000F45
:10185C0055F8042B80F22F81002A80F22E815442FD
:10186C00022202928DE7682903D1682B06D1482306
:10187C0087E76C2902D16C2B00F02181002B7FF4BF
:10188C0032AF0B467DE77A2B06D1752955F8046BE0
:10189C0014D14FF0000B0CE06C2BF6D04C2BF4D188
:1018AC00073525F007037529D3E9006B03F108050B
:1018BC0006D120283BD1854F013C09E04FEAE67B5D
:1018CC00BBF1000FF5DA7642814F6BEB4B0B013C11
:1018DC000DF12D03059300230493304659460A223B
:1018EC000023FEF7F5FB059B303203F8012DB446BF
:1018FC000593049B5A46BCF10A0F8B4672F1000209
:10190C0003F1FF3106460491E7D2C3F1010B3033EA
:10191C000DEB0306B8F1000FA6F104066DDA029B7D
:10192C00D9077DD4A8EB0B03A4EB0B0413E02B28F5
:10193C000ABF684F684F04F1FF34C9E770290FD113
:10194C0055F8042B0023FAB9634F644E053C6FF035
:10195C0004034FF0050B029A920770D4A04666E080
:10196C0078216C2B03D155F8042B002308E04C2B69
:10197C00F9D1073525F007031D465B6855F8082B90
:10198C00232825D1880621D5554F023C01F0600152
:10199C00A1F1390B0DF12D0E002602F00F010929D2
:1019AC0088BF594430310EF8011D102A4FEA12112C
:1019BC0041EA03714FEA131C73F1000306F1FF3087
:1019CC0008D2C6F1010B06F13003A1E7454FDCE765
:1019DC00414FDBE706460A466346DEE755F8046BE3
:1019EC00304603F0DAFEB8F1000F834602DB4045C7
:1019FC00A8BFC346384F4FF00008A8EB0B03002BD1
:101A0C0092DDA4EB0804A6E755F8043B8DF81830DA
:101A1C00314F013C4FF0FF334FF0010B06AE9AE70C
:101A2C00A046EAE7029301992020D047029BB8F127
:101A3C000108F7D524EAE472013C9144A41AB84693
:101A4C0006E0049302920199D047029A049B9046B7
:101A5C00424612F8010B0028F3D11A46013A15D56B
:101A6C00002BACBFC7EB03077F425B46013B15D590
:101A7C00BBF1000FA8BF5F444F442646013E14D56E
:101A8C00002CA8BF3F1907EB080915E60493029236
:101A9C0001993020D047049B029ADFE70293019909
:101AAC0016F8010BD047029BE0E701992020D047A4
:101ABC00E4E70122D5E6904663E6144661E64C2342
:101ACC005FE648460DB0BDE8F08F00BF987E000081
:101ADC00967E00009A7E0000A47B0000A27E00008F
:101AEC009C7E00009F7E0000014B0360002070472D
:101AFC006075000070B5114B1C680D46DCB1104BC5
:101B0C00196800238B4202DB6FF0010070BD224686
:101B1C0012F8106B864202D001331446F2E7E068EB
:101B2C0010B96FF01200F1E705F0CDFB0028F8D0EA
:101B3C002C600020EAE76FF00C00E7E70C000020B7
:101B4C006075000070B588B005460C46C0B2694699
:101B5C001646FFF7CFFF00281BDB0098C8B143687F
:101B6C000293836822680195CDE903360023CDE901
:101B7C0006230593C56803F052FD6DB1284608494C
:101B8C0001AA03F041FF079808B9059B236008B030
:101B9C0070BD6FF01500FAE76FF01200F7E700BFA9
:101BAC00C556000030BFFFF7FDBF00BF704700BF38
:101BBC0070B5264B15469A6A12F0100F9A6A14BF2C
:101BCC001124102412F0080F9A6A18BF12249207DD
:101BDC0006460AD5586B9A6A140634D519B19A6A16
:101BEC0022F080029A62132401E06FF01500174B6B
:101BFC009A6A12F0010F9A6A18BF142412F0200F7F
:101C0C009A6A18BF1524D20602D49B6A9B070AD580
:101C1C000E4B5B68190506D5314600F00DFA10B174
:101C2C0080F309880224094B9A6A920642BF5A6AC9
:101C3C0022F400525A629A6A42F0FF029A6200231E
:101C4C002B70204670BD6FF01500CCE700ED00E066
:101C5C00134B9A6A12F0007F9A6A14BF1E201D2043
:101C6C0012F0807F9A6A18BF1F2012F4002F9A6A14
:101C7C0018BF212012F4802F9A6A18BF222012F468
:101C8C00003F9A6A18BF232012F4803F9A6A6FEAC9
:101C9C0002426FEA12429A6218BF2420704700BFBA
:101CAC0000ED00E010B5194B0246986A9C6A10F4DE
:101CBC00805F14BF1720162014F4006F9C6A18BFA5
:101CCC001820A40509D5986B986A000404D51AB19C
:101CDC009A6A22F400429A6219200C4B9A6A12F406
:101CEC00806F9A6A18BF1A20D2050CD49B6A13F421
:101CFC00005F18BF1C20054A936A43F47F4393622C
:101D0C0000230B7010BD1B20F5E700BF00ED00E0B9
:101D1C0070B5454B5B688AB00546C3F308030026D3
:101D2C0086F31188BFF36F8F02F07F40B0F17F4FC5
:101D3C0011D102F00C0008280DD010074CBF0D4635
:101D4C0001260022033B8DF80720032B05D8DFE882
:101D5C0003F01E5D615A3546F3E700249DF8073009
:101D6C009BB92022294602A803F02EFD099B002EC8
:101D7C0054D0C3F3080222B96FEA53236FEA43230A
:101D8C00099302A9204603F0B9FC0AB070BD264B9A
:101D9C00DA6A9107E1D4DA6A002ADEDBDA6A5200E9
:101DAC00DBD55A69A96942F480725A61BFF34F8F2F
:101DBC00BFF36F8F5A6931F8021C22F480725A619A
:101DCC00BFF34F8FBFF36F8F4DF6027291420AD063
:101DDC009A6AD2B24AB10DF1070201212846FFF7E7
:101DEC00E7FE0446BAE72C68B8E79A6A12F47F4F0C
:101DFC0005D00DF107010120FFF754FFF1E79B6AB5
:101E0C00B3F5803FA9D3FFF723FFEAE70DF10702F3
:101E1C000021E3E70DF107010020EDE723F4FF7348
:101E2C0023F00103ACE700BF00ED00E0024A536968
:101E3C0043F010035361704700ED00E0EFF30880AE
:101E4C00EFF3098101B57246FFF762FF01BD00BFD8
:101E5C00002080F31488BFF36F8F00F031FA00205C
:101E6C000D490860BFF34F8F0C4880F3088800F0D1
:101E7C003DF8202080F3118809484FF40461401884
:101E8C0080F30988EFF314800221084380F314884F
:101E9C00BFF36F8F00F0B4F894ED00E0005D00200C
:101EAC00C02C0020BFF34F8F0549064BCA6802F4C3
:101EBC00E0621343CB60BFF34F8F00BFFDE700BF61
:101ECC0000ED00E00400FA050749D1F8902000234A
:101EDC00C2F307221846934200DB7047C1F89830D2
:101EEC00C1F8A0000133F6E700ED00E008B572B6CA
:101EFC00002383F31388FFF7E7FF144B4FF0FF32F7
:101F0C00C3F88020C3F88420C3F88820C3F88C2041
:101F1C00C3F89020C3F89420C3F89820C3F89C20F1
:101F2C00C3F88021C3F88421C3F88821C3F88C211D
:101F3C00C3F89021C3F89421C3F89821C3F89C21CD
:101F4C0062B6BFF34F8FBFF36F8F08BD00E100E0A7
:101F5C001EF0040F0CBFEFF30880EFF309808169CA
:101F6C0011F8021C0229FFD001B503F0C9FB01BD19
:101F7C0040B2002807DB044A4109012300F01F008E
:101F8C00834042F82130704700E100E040B2002865
:101F9C000CDB4309064900F01F002033012282406C
:101FAC0041F82320BFF34F8FBFF36F8F704700BFF3
:101FBC0000E100E0054B420900F01F0053F822201D
:101FCC00012303FA00F01040704700BF00E100E06D
:101FDC0040B20028A8BF00F1604001F10101B8BF78
:101FEC00064B4FEA4111ACBF00F5614000F00F0009
:101FFC00C9B2B4BF195480F80013704714ED00E057
:10200C000B4A08B50B4B22F07F029A60BFF34F8F3F
:10201C00BFF36F8FD3F8882022F47002C3F88820A6
:10202C0002F09CFE02F0E2FE00F046F802F0A2FE86
:10203C000000000000ED00E010F1160F074B08D077
:10204C00984208D34033834205D98B4203D90448C4
:10205C0070474033F9E70020704700BF003500207F
:10206C004035002004462025084611461A46084BE8
:10207C0083F3098863B64FF0000383F31188BFF331
:10208C006F8FA04785F31188BFF36F8FFEE700BFFA
:10209C00405D0020014910220A60704710ED00E0FD
:1020AC0072B6494081F31188BFF34F8F20BF80F384
:1020BC00118862B6704700BF044800232021C21863
:1020CC000133272B82F80013F9D1704700E100E0AF
:1020DC0001B5EFF30580A0F110004FEAC0000449F0
:1020EC00014409C99847BDE801400249084700006E
:1020FC00EC730000B91B0000024B034A0348022199
:10210C0000F030B80000012000000020D475000061
:10211C00084AC2F898000B6823F01F03034343F0EE
:10212C001003C2F89C308B6843F00103C2F8A03056
:10213C00704700BF00ED00E0044B0522C3F894206B
:10214C00BFF34F8FBFF36F8F704700BF00ED00E000
:10215C00BFF35F8F024B0022C3F89420704700BF7F
:10216C0000ED00E010B5034C0123227803F0E7FAF0
:10217C00207010BD74280020F0B5454D2C68082C3B
:10218C0085B000F28280FFF7E3FF00200C2684422A
:10219C000DD1404D404F2C706846FFF7A5FC002434
:1021AC000646A6420AD1FFF7C7FF00201CE069686B
:1021BC0006FB0011FFF7ACFF0130E8E7009800EBDD
:1021CC0004114FEA041CCB683B40B3F5000F4AD016
:1021DC000CD8B3F5001F30D0B3F5800F38D0B3F561
:1021EC00801F12D06FF0150005B0F0BDB3F1807FE9
:1021FC0042D0B3F1007FF5D150F80C3088684A68B2
:10220C0003F08DFA40F4802009E050F80C30886817
:10221C004A6803F084FA40F0885040F43020039070
:10222C0028780728CDE90123DCD801A9FFF770FF36
:10223C002B7801332B700134B3E750F80C308868DD
:10224C004A6803F06CFA40F0885040F40020E6E74E
:10225C0050F80C3088684A6803F061FA40F000705E
:10226C0040F40030DBE750F80C3088684A6803F023
:10227C0056FA40F08270D2E750F80C3088684A6801
:10228C0003F04DFA40F08870C9E74FF0FF30ABE730
:10229C00EC750000742800200000F0FF024B0122B6
:1022AC00C3F840250020704700E0014020B1034BEB
:1022BC00800143F001031847704700BF30750000E0
:1022CC0001F00ABD084B70B5C31A0D4607499B10A7
:1022DC00044659430648402203F0A6FA2B46014611
:1022EC002046BDE870401847BC0D0020B76DDBB62A
:1022FC007473000073B50C4C0C4A4023041B009300
:10230C000D460B460A49A41061430646094803F0E2
:10231C00B7FA011E05DA30462B4602B0BDE8704014
:10232C00184702B070BD00BFBC0D0020FD58000066
:10233C00B76DDBB67473000010B54FF02003EFF3EC
:10234C00118483F31288BFF36F8F074A136823F04D
:10235C000201DB07116002D4012004F0B3FE84F308
:10236C001188BFF36F8F10BD0C0E0020002270B5CA
:10237C00012104461046FFF72BFE0F4801F08EFE9C
:10238C000E4B984215D101F09BFE26690C49304644
:10239C0003F0AEF800280BDB0125356424690849ED
:1023AC0004F11C0003F0A4F8002801DBE564002014
:1023BC0070BD6FF00400FBE7052400000000AD0BBE
:1023CC000C76000070B501460C2309484B43C41829
:1023DC00D4E90E56403300221844A26303F011FADC
:1023EC002DB132462B460348BDE87040184770BDEE
:1023FC00BC0D00207473000010B1012804D070478C
:10240C00034B1B6C5B0701D1FFF7DCBF704700BFB0
:10241C00BC0D002008B54FF02003EFF3118183F3BE
:10242C001288BFF36F8F124A136843F002001060DA
:10243C00DA0708D481F31188BFF36F8F0120BDE850
:10244C00084001F04FBE4FF08043D3F80C24D3F872
:10245C000C34DB07EED5074803F0D3F981F3118870
:10246C00BFF36F8F0020BDE80840FFF7ABBF00BF84
:10247C000C0E0020FC0D002010B5074C23782BB956
:10248C004FF4A57004F01AFF01232370BDE810402F
:10249C00002001F027BE00BF75280020F8B52549A3
:1024AC00BFF35B8F0646012251E8003F41E8002054
:1024BC000028F9D1BFF35B8F33B91F491F484B601C
:1024CC00CB608A6003F027F8731E012B1DD804F033
:1024DC0019FF0446D0B91A4B1B78BBB14FF080439F
:1024EC000222C3F8082305464FF08047D7F818247A
:1024FC00D7F81834D20313D59B0701D0012E0FD176
:10250C0094B185F31188BFF36F8FF8BD4FF02003A2
:10251C00EFF3118583F31288BFF36F8F0124E3E788
:10252C002846FFF7BDFDE1E74FF080430222C3F8D8
:10253C000423EAE7B80D0020A80D0020D80D0020D8
:10254C00862C0020024B0B6001231360704700BFE8
:10255C00100E0020004870476076000010B504F0A3
:10256C0031FE034C206004F029FE6060002010BD99
:10257C00100E0020F8B50E463046194617461D467B
:10258C0003F0C2F9B8B146EA050414F0030412D101
:10259C004DB12B19032BA6EB040006D8074AD2F831
:1025AC000034DB07FBD50020F8BD3B1B043C19684D
:1025BC0002F0C6F9EDE76FF01500F5E700E0014019
:1025CC0038B545682B69B3B11035284602F084F84C
:1025DC00044680B90146284602F046F8084B98425A
:1025EC000BD108492246284602F026F8224605213E
:1025FC000620FFF7EDFC002038BD6FF00400FBE770
:10260C000000AD0B15260000430970B507D10B4B2C
:10261C00596821B101250C68094E854001B970BD7E
:10262C008A682A4002D04B68304698471CB1236810
:10263C0021461C46F2E72346FAE700BF180E00209D
:10264C00887300002DE9F043476840F20636D00647
:10265C003B7B87B002EA060654BFC2F3401003204E
:10266C0001F01F05B6F5837F144645EA43158DF836
:10267C00030042D00FD8062E18D007D8B6B1022EC0
:10268C003DD06FF0150007B0BDE8F083B6F5807F44
:10269C00F7D101260AE040F20222964231D0B6F57B
:1026AC00407F30D0B6F5007FEBD1022622032CD52B
:1026BC007A6801238B40C2F808353B696BBB05F087
:1026CC001F026D0976D1920002F1A04284F4803190
:1026DC00D2F80037C1F30041C4F3404423F4E16362
:1026EC0044EA410423F007031C4344EA800444EA0F
:1026FC000624C2F800470020C5E70726D6E70426C3
:10270C00D4E70526D2E70326D0E7630341BF0123B4
:10271C007A688B40C2F80C35CFE710370DF1020206
:10272C002946384601F08EFF14F4403F80460CD108
:10273C002946384604F038FD214B9845DBD19DF8ED
:10274C000210384601F0D2FFD5E701AB4FF000097B
:10275C0003AA29463846CDE90439CDE90199CDF8CB
:10276C000C9001F043FE164B98428AD114F40033BE
:10277C0015D09DF803308DF80E3084F48034C4F3FA
:10278C0000444B4603AA294638468DF80C608DF858
:10279C000D4001F0DBFE0A4B9842CDD071E7CDE93C
:1027AC00043303AA0DF1030329463846039301F0C1
:1027BC001DFEF0E702F5E07253F82230FFDE00BF99
:1027CC000000AD0BF0B54068057B01F01F0444EA36
:1027DC004514056987B0002D60D0B2F5001F00F1DB
:1027EC00100506D12146284604F0E0FC002007B075
:1027FC00F0BD01AE0027B2F5800F0197776038D19C
:10280C00B3F1007F14BF052304238DF8043000239B
:10281C00CDE904630393836823FA01F111F00101FC
:10282C0019D1B2F1A07F16D104F01F03620903F590
:10283C00E07339D14FF0A04252F82330DB070AD4B1
:10284C000DF1030632462146284601F0FBFE184BDB
:10285C00984219D0029603AA2146284601F0C6FDDB
:10286C00144B98421DD101222146284601F04AFF03
:10287C00BCE7B3F1C06F05D0B3F1007F14BF0123E7
:10288C000223C2E70323C0E73146284601F034FF98
:10289C00084B9842DED06FF00B00A8E76FF0850074
:1028AC00A5E76FF01500A2E751F82330FFDE00BF5B
:1028BC000400AD0B0000AD0B2DE9F041364E374F47
:1028CC0000EB81010125814202D10020BDE8F0819D
:1028DC00036813F4805FC3F3432C03F07F044ED1E1
:1028EC001B0C7F2CA3F1160316F80CC008BF4FF07D
:1028FC00FF34032B46D8DFE803F002313437C2F83B
:10290C0060450368B4F1FF3FC3F3803324D004F077
:10291C001F0E64095BBBC4BB4FF0A04405FA0EF359
:10292C00C4F80C354FEA8E0404F1A044D0F80080B2
:10293C00D4F8003703EA070E88F40053C3F340338E
:10294C0043F00203C8F3C11843EA880343EA0C239B
:10295C0043EA0E03C4F800370430B4E7C2F8644508
:10296C00CFE7C2F86845CCE7C2F86C45C9E77CB93B
:10297C004FF0A04405FA0EF3C4F80835D2E76FF017
:10298C001500A3E76FF08500A0E7C3F80C35FFDE58
:10299C000023C3F80835FAE7FA7E0000F0F8FCFFD4
:1029AC0002480021C2E90001002070470024F40015
:1029BC00F7B545680669AF6B01AA0021384603F0EC
:1029CC00A4F8041E07DA002201211820FFF700FBEF
:1029DC00204603B0F0BD019B3A6819791868FFF7DF
:1029EC006BFF0022044601211820FFF7F1FA002C9E
:1029FC00EEDB00222C6811464FF0A0474FF0010C83
:102A0C0002F5AC7354F8230000280BDB430929D1E1
:102A1C00D7F80435C34013F0010318BF0CFA02F3C6
:102A2C000B43D9B20132042AEAD102360023012029
:102A3C0000FA03F20A420CBF012200220133D20336
:102A4C00042B26F8022FF3D100231A4605F10801B6
:102A5C00284602F04DF8054B984214BF6FF00F0456
:102A6C000024B5E70023D3F80435FFDE0000AD0BDE
:102A7C0070B5012383400E4ABFF35B8FDC4352E8F1
:102A8C00001F01EA040542E80056002EF7D1BFF3FF
:102A9C005B8F4FF4803282400648C0F80823BFF3A6
:102AAC005F8FBFF36F8F0B4214BF0120002070BDEE
:102ABC00580E00200010014070B40E49D1E90034CA
:102ACC00D01AC31844F1000422F07F46C1E9003447
:102ADC00A6F50013B3F5400F09D2074B1B681A0A71
:102AEC001B069C19054B42F10005C3E9004570BC5F
:102AFC0002F0DCB9A80000205C0E0020B000002021
:102B0C0011B3BFF35B8F0123104A834052E800CF0F
:102B1C004CEA030C42E800C10029F7D1BFF35B8FEC
:102B2C000B4A4FF480338340C2F80433094BBFF394
:102B3C005B8F1B68BFF35B8FC340DB0742BF064B49
:102B4C004FF40032C3F80021704700BF580E00202C
:102B5C0000100140540E002000E100E00D4B1868FD
:102B6C00010A0006BFF35F8F0B4BD3F8043518181E
:102B7C0041F10001B3F5801F0AD2084BD3E90023C1
:102B8C00904271EB030303D210F1807041F100010C
:102B9C00704700BF5C0E002000100140B000002008
:102BAC002DE9F04F85B016461F469DF840A004460F
:102BBC00FFF75EFF0190FFF7D1FFB04271EB070307
:102BCC0054D23E4B301A67EB0101984271F100016F
:102BDC004FD23B4B03EB0413D3E902239F4208BFB4
:102BEC0096425ED037494FF4803804F1500508FA0C
:102BFC0004F8AD00C1F848832046ADB203F060F88C
:102C0C0026F07F4B05F1804504F5A87305F5883552
:102C1C00DC464FF003090293029A2CF07F4341F8F3
:102C2C002230C1F84483D1F80435274A6FF00200F2
:102C3C00C01A604420F07F40904232D9286868B1B5
:102C4C00D1F804350393A3EB0B0020F07F40B0F5D3
:102C5C00000F26D9204603F033F8039BBAF1000F7E
:102C6C0007D109EB030C09F10109D5E7BAF1000F03
:102C7C0009D06FF0150520460199FFF741FF284652
:102C8C0005B0BDE8F08F0123104ABFF35B8FA34062
:102C9C0052E8000F184342E800010029F8D1BFF3B5
:102CAC005B8F07490E98230101EB0412C8500F9B50
:102CBC005360C2E902670025DDE700BF0100800018
:102CCC009800002000100140FDFF7F00540E0020F2
:102CDC007FB51C4C1C4BC4F80833C4F848331B4B51
:102CEC0000254FF0FF304FF0FF31C4F80855C3E911
:102CFC0002014FF48033C4F80433154B02264FF411
:102D0C0000320121C4F804631120C3F880212A4643
:102D1C00FFF75EF91120FFF72BF90E4A0123A36090
:102D2C00236013600C4B0D4A0093CDE90155002331
:102D3C002846FFF735FF3046FFF7B0FB284604B0B6
:102D4C0070BD00BF0010014003000F009800002070
:102D5C0000E100E0580E0020C52A0000FFFF7F00B4
:102D6C002DE9F7432F4CD4F8043399070BD5D4F83D
:102D7C00043143B12C4A0023C4F80431D4F8043193
:102D8C00136801331360D4F80433DA032AD5BFF384
:102D9C005B8F264B53E8002F22F0010143E8001013
:102DAC000028F7D1BFF35B8FD30702D4D4F840319E
:102DBC00C3B10025C4F84051D4F84031FFF7CEFE22
:102DCC004FF02003EFF3118283F31288BFF36F8F60
:102DDC00174BD3E90267B042B94106D282F311888E
:102DEC00BFF36F8F03B0BDE8F0834FF0FF384FF0A7
:102DFC00FF39C3E90289D3E900101D604FF4803319
:102E0C00C4F84833C4F84051D4F8403182F31188E7
:102E1C00BFF36F8F0029E5D0009032463B46284621
:102E2C008847DFE7001001405C0E0020540E0020A4
:102E3C009800002030B5431C124C85B005D084425C
:102E4C00A8BF0446012CB8BF0124FFF787FE0E4B28
:102E5C000C4DD3E90013401AB0F5000F10D2221814
:102E6C00AA4228BF2A4652184FF000000749009189
:102E7C00CDE9010043F10003FFF792FE05B030BD30
:102E8C002A46F0E7FFFF7F00A8000020C52A0000BB
:102E9C0008B5FFF763FE024B1B68C01A08BD00BFE4
:102EAC00A800002010B5084C012363601120FFF727
:102EBC006DF8064BC4F80833C4F84833044B4FF490
:102ECC000032C3F8802110BD0010014003000F0038
:102EDC0000E100E030B5816885B0103921F00704BD
:102EEC00054602F0E2FB10220146684602F077FC30
:102EFC0007491022684602F067FC10236A462146F7
:102F0C00284602F0A2FB003818BF012005B030BDE6
:102F1C00EC78000030B50D46816887B0102302AA0A
:102F2C001039044602F07CFB002802DA012007B0BD
:102F3C0030BD102202A9204602F029FF00283AD108
:102F4C001E49102202A802F02FFC00280CBF0123FE
:102F5C0002232B70204602F006FF012301460DF1DF
:102F6C000702204602F05CFB0028DFDB9DF80730EF
:102F7C0003F00F021B096A702B7101220DF107017E
:102F8C00204602F004FF10B96B78042B03D90123FF
:102F9C006B7000232B71A268183A22F00702083AD2
:102FAC00A91C204602F006FF0028BFD1E91C2046D0
:102FBC0002F059FFBBE70323CBE700BFEC7800001E
:102FCC00F0B5354F460085B00546694657F82600E2
:102FDC0002F04FFF044610B1FF2005B0F0BD0136E2
:102FEC0002A957F8260002F044FF012837D12B48DC
:102FFC002A46492102F006FB294B02938DF80C401E
:10300C009DF800609DF80870264C0022207831460F
:10301C0002F0AFFE50B36078394602F0AAFE28B336
:10302C00A378042B03D09DF8031099421ED1E378AA
:10303C00042B03D09DF80B10994217D12379042B44
:10304C0010D16279022A1DD1174B18482A46492102
:10305C0002F0D8FA6079831E022BBED9BCE7002897
:10306C00CED0B9E79DF802109942EAD00132032A7A
:10307C0004F10604CAD10E482A46492102F0C2FACC
:10308C000120AAE7032A05D00A4B0B49042A08BFE2
:10309C000B46DAE7094BD8E7CC7700004C7F0000F1
:1030AC0003010303E17F00002E7F0000977F0000E7
:1030BC00BB7F0000337F0000457F0000297F0000AC
:1030CC00044B1B68584043085B4240421843C017EE
:1030DC00704700BF600E00208842F0B504D0094F45
:1030EC0004380025AA4200D1F0BD3E6850F8044FC8
:1030FC005E4024EA060451F825601E403443046007
:10310C000135EFE7600E0020044B1B685840430864
:10311C005B4240421843C017704700BF600E00204E
:10312C00F8B50E46C9880546144603F091F90746D2
:10313C00D0B92046FFF7E8FF104B1A68B5F90430F8
:10314C00424023EA0203B6F9042002401343AB8049
:10315C0004460346F28831682868FFF7BDFFF38800
:10316C00E443EA88934201D33846F8BD296851F804
:10317C002320224041F823200133F2E7600E002087
:10318C002DE9F047DFF83CA00746884616469946DD
:10319C000024DAF80050DAF800305D4085EA0905C1
:1031AC0085EA0400FFF7B0FFC243D2B208EBC401BA
:1031BC003846FFF7B5FF10B90134A642E9D1BDE896
:1031CC00F08700BF600E00202DE9F04F99B08346C8
:1031DC000F46184600211646039303F09CFA00286C
:1031EC0000F08981784B14930024012515AB0399C9
:1031FC0013933046CDE90B45CDE90D45CDE90F458F
:10320C00CDE9114503F010FAA04228DABBF1000F0A
:10321C0005D1E7B90024204619B0BDE8F08F21464E
:10322C00584603F089F904460028F2D00BA803F0A5
:10323C0001F90DA803F0FEF80FA803F0FBF811A894
:10324C0003F0F8F80C2115A800F02CFBE3E731464D
:10325C00384603F03CF904460028E7D1DAE731465A
:10326C000BA803F034F904460028DFD103990DA80C
:10327C0003F02DF904460028D8D1F188ADF8385068
:10328C0002310FA8ADF8305003F0E2F804460028E4
:10329C00CCD101460FA803F04FF904460028C5D144
:1032AC00F18811A8023103F0D3F804460028BDD1EF
:1032BC000DA803F06DF900F01F001F2873D0C0F1AA
:1032CC001F0319460BA8019303F088F90446002844
:1032DC00ACD101990DA803F081F904460028A5D1C1
:1032EC00BDF83250BDF83A80A5EB080A4FEA4A19EE
:1032FC0049460DA803F072F90446002896D14FEA0E
:10330C008A0A0DA90BA803F0BEF900284DDA49462C
:10331C000DA803F080F90446002887D108F1FF338B
:10332C0005939B0005F1FF3A069305F1804508F1E2
:10333C008043023B013D9B00A5EB08050893AB00C5
:10334C000293059B9A4541D8BBF1000F0DD00FA9F4
:10335C00584603F0BCF8002840F0C980039AB388A3
:10336C00928813FB02F3ABF80430002F3FF45EAFEE
:10337C0001990BA803F04FF9002840F0B880B388EE
:10338C00ADF830300BA9384603F0A1F801460028FF
:10339C0040F0AF80384603F0BEF900287FF446AF0A
:1033AC000123BB8042E701949AE70F9A52F80A3046
:1033BC000BA9013342F80A3008460DAA03F091FA22
:1033CC00044600289DD031E7010003000D9B069AAE
:1033DC0004931344DDF82C900793049B59F82A109E
:1033EC009A580F9D4FEA8A08A8F104030993029B8F
:1033FC0091421D4476D2A8F10400002359F8000034
:10340C00FCF766FE002914BF4FF0FF330346BAF1F8
:10341C00010F2B6016BF09EB0803002353F8083C7F
:10342C001593A8F1040359F80330169359F8083092
:10343C0017932B68DDF8108001332B60089B9844A0
:10344C002B68013B2B60002111A803F075F80028B4
:10345C004DD1059B002B48D0D8F80020119B1A6049
:10346C00079A12685A6011A92A68084603F03DFAB7
:10347C0000283CD113A911A803F005F90028DFDCC2
:10348C002A680DA911A803F030FA80BB029B4FEA01
:10349C00C308414611A803F0A1F840BB0BA908468C
:1034AC0011AA03F01EFA014618BB0BA803F033F95E
:1034BC00002812DA0DA911A803F009F8B8B9414691
:1034CC0011A803F08BF890B90BA911AA084603F0C8
:1034DC0005FA60B92B68013B2B60029B0AF1FF3A9D
:1034EC00043B2DE74FF0FF3391E7059AB6E704460E
:1034FC009CE60C469AE66FF00B048CE62DE9F84F2F
:10350C009246194A1568454006460F46ED43002B76
:10351C0014BF9946894600240A9B04F104084345CC
:10352C0004D20A9B9C4214D3BDE8F88F0AEB04002A
:10353C0003F03EFC00EA060B09EB040003F038FC38
:10354C0000EA050141EA0B01381903F03CFC444642
:10355C00E2E71AF8043019F8042033402A401343E8
:10356C003B550134DDE700BF600E0020082804D075
:10357C000928034818BF002070470248704700BF55
:10358C00F37F0000F67F000001680E4A914203466B
:10359C0015D1C169A2F11022A2F1EF1291420ED104
:1035AC008268012A0BD8C26812B101698A4206D01E
:1035BC00586928B19B691B1A584258417047012021
:1035CC00704700BF55AA00FF70B50D4B9E68A6B1A1
:1035DC003046FFF7D9FF044678B9F3686BB9356903
:1035EC000DB9204670BD2846FFF7CEFF28B9EB6811
:1035FC00B34202D12E462D69F2E70124F1E700BF58
:10360C00640E00202DE9F8433F4F3C68D4B1BC68F0
:10361C00C4B100284AD0002948D001FB00F5B5FB05
:10362C00F0F0884242D1281D40D8A9070DD025F0D2
:10363C0003060436FC6803E06368B34238D2A4691D
:10364C00002CF9D12046BDE8F8832E46F2E7FB604A
:10365C0041E006F120016318203A5A600022C3E9C8
:10366C0002242A4822691A6160502949D96102B1A1
:10367C00D36062695A61A1699961AAB193619A692F
:10368C0002B153614FF00109C4E9016923610023C0
:10369C00C4E905333B69DB072ED5FFF795FF58B31B
:1036AC001C4B48461B6826E0FB60E8E70024C9E792
:1036BC00A3681BB1174B01201B6898476268921BCB
:1036CC00232A04F12008C4D80123A360D4E90523DC
:1036DC00002ABCD09361A3690BB162695A610023C3
:1036EC00C4E905333B69DA0706D5FFF76DFF18B15E
:1036FC00084B1B68012098472A4600214046444647
:10370C0002F06DF89EE700BF640E002055AA00FF82
:10371C00669911EE1400002070B50546002800F0E3
:10372C008880444E3368002B00F08380B268002AF6
:10373C007FD0834203D872681344984203D33E4B24
:10374C0001201B689847A5F120042046FFF71CFFB9
:10375C0018B1394B01201B68984755F8183C012BC0
:10376C0003D0354B01201B689847002345F8183CC3
:10377C0055F8143C3BB39A682ABB55F81C2C02F143
:10378C0020015A680A445A6055E905321A6155F805
:10379C00145C2B6903B1DD6020220021204602F06D
:1037AC001EF8286910B18368002B2ED033699B0753
:1037BC003FD5FFF709FF00283BD01F4BBDE87040F9
:1037CC001B680120184755F8100C00282AD0836874
:1037DC0043BB42686368134420336360036923610D
:1037EC00D4E905239AB9CBB9436963618269A261B3
:1037FC00B3B19C61A36903B15C61236903B1DC6063
:10380C002022002101F0EBFFD0E72C46E1E7936189
:10381C00A369002BE8D062695A61E5E7F360F7E72A
:10382C00F460E7E7F36845F8083C03B15C61F460C9
:10383C00BCE770BD640E00201400002038B51422C3
:10384C000C4605460021134801F0C9FF12491348E4
:10385C0000F040F8232C1CD915F003031FBF043CC7
:10386C00E418C3F10403ED1822460021284601F0A8
:10387C00B6FF084B0A499D60C3E90054203C6C60BC
:10388C009A6811609A68DA60A1F11021A1F1EF1128
:10389C00D16138BD640E00202537000011360000C0
:1038AC0055AA00FF10B50A46044619B1024B002177
:1038BC001B68984710BD00BF10000020014B1B680F
:1038CC00184700BF1C000020014B1B68184700BFA5
:1038DC0018000020024B1860024B00201960704742
:1038EC001C00002018000020F8B500F108064768FD
:1038FC00044630460D4602F04FFE87424BD16368BA
:10390C00B3F5807F47D80021304602F004FF002831
:10391C0041DD0021304602F02BFEE0B345B92946CB
:10392C0004F1100002F0F7FE002834DD0020F8BD91
:10393C0004F120050021284602F0EDFE00282ADDC6
:10394C000021284602F014FE28B304F128050021BA
:10395C00284602F0E0FE00281DDD0021284602F07A
:10396C0007FEC0B1002104F1100002F0D4FE0028C3
:10397C0011DD002104F1300002F0CDFE00280ADD3B
:10398C00002104F1380002F0C6FE002803DD0021FE
:10399C0004F14000C6E70148C9E700BF80BFFFFF44
:1039AC00012938B50546144601D0074838BD22B95F
:1039BC000123C5E91C340020F8E71046FFF7D6FDBB
:1039CC000028F5D1F1E700BF00BFFFFF70B5002163
:1039DC000446FFF789FF054610B10E4D284670BD11
:1039EC0004F10806304602F0D3FD7F28F5D91034D7
:1039FC002946204602F0BCFD0028EED0204602F0FD
:103A0C00C7FD0128E9D93146204602F03CFE0028CA
:103A1C00E4DBE2E700BEFFFFF0B50C4685B0002109
:103A2C0005461646FFF760FF002839D102A802F0C0
:103A3C00FCFC21466A6802A802F0B4FD044618B1E9
:103A4C0002A802F0F7FC0CE005F10804214602A8DC
:103A5C0002F019FE002807DB02A802F0EBFC6FF065
:103A6C000304A4F5854418E005F1480302A96F6826
:103A7C00009305F110022346084602F099FF044614
:103A8C000028DDD13A46314602A802F0A1FD0446D9
:103A9C0002A802F0CFFC002CE3D1204605B0F0BD0B
:103AAC00004CFAE780BFFFFF01292DE9F0410346E6
:103ABC0041D8224A224F2348234E244D244C996648
:103ACC00002918BF9046234A18BF964602F1794246
:103ADC0002F5740202F5016218BF94461E4A18BF23
:103AEC0017461E4A18BF164602F1D14208BF80463F
:103AFC0002F5C0121A4802F51E620CBF8646154626
:103B0C001848194A0CBF844614461848A2F1116291
:103B1C00A2F50C22A2F28E2218BF02460020C3E9A5
:103B2C001000C3E9128EC3E914C7C3E91665C3E9D3
:103B3C001842BDE8F0816FF07300FAE7D89E05C11A
:103B4C003AF54FA567E6096A7F520E518C68059BC2
:103B5C00ABD9831F07D57C3639590EF7310BC0FF13
:103B6C0085AE67BB72F36E3CA78FF964A44FFABEA7
:103B7C002DE9F04FCDB000F1640300F144070DF5D1
:103B8C008679009301914A463B4653F8041F42F84C
:103B9C00041F00999942F8D102ADDFF800A14FF053
:103BAC0000082C46B8F10F0F61D8019B03EB88007D
:103BBC0003F0FEF803F0A7F90146A960D4E94763C6
:103BCC00D4F818015AF804CB73404FEAF022D4F819
:103BDC00206182EAB012034082EA7062734013449F
:103BEC00D4F82421D4F81061134463440B44D4E971
:103BFC00421E4FEA713C41EA0E0232408CEAB10C93
:103C0C0001EA0E0B42EA0B028CEAB15C9444D4F844
:103C1C001421D4F82061C4F824611A44D4F81C612E
:103C2C00C4F8182108F10108D4F81021C4F804C014
:103C3C006344B8F1400FC4E94706C4E944E2C4E95F
:103C4C004231236005F10405ACD157F8043F59F813
:103C5C00042F13443B60009BBB42F6D102A84FF4E7
:103C6C009471FFF71FFE00204DB0BDE8F08F2B685C
:103C7C0055F8382C55F8340C4FEAF34181EA73416E
:103C8C0081EA932155F8143C134419444FEAB0438C
:103C9C0083EAF01383EAD00319448EE7D47700004B
:103CAC004FF0704393F8E02F062A09D1D3F8E83F80
:103CBC00C3F30313033B042B02D8024AD05C7047B6
:103CCC000020704708800000024AD2F80034002B14
:103CDC00FBD0704700E0014010B503F0E2F940B1B1
:103CEC004FF080538E4AD3F82433C3F30423C2F825
:103CFC004035FFF7D5FF10B18A4B8B4A5A6703F05A
:103D0C00D0F948B14FF080534FF08042D3F8443291
:103D1C00C3F34233C2F83C35FFF7C2FF30B1834ADC
:103D2C00D2F8FC3023F08073C2F8FC3003F0B9F900
:103D3C0040B14FF080430022C3F80C21C3F810218E
:103D4C00C3F83825FFF7ACFF20B14FF080430322B6
:103D5C00C3F8A025FFF7A4FF60B1754B0522C3F88B
:103D6C0010260122C3F888260022C3F818263F2209
:103D7C00C3F814264FF08053D3F83021511C09BFDF
:103D8C004FF07043D3F8343193F8E02FD3F8E83F79
:103D9C0008BFC3F30313062A4DD1033B042B03D8EE
:103DAC00644AD35C002B46D04FF08052624BD2F861
:103DBC000414C3F82015D2F80814C3F82415D2F84B
:103DCC000C14C3F82815D2F81014C3F82C15D2F81B
:103DDC001414C3F83015D2F81814C3F83415D2F8EB
:103DEC001C14C3F84015D2F82014C3F84415D2F8AB
:103DFC002414C3F84815D2F82814C3F84C15D2F87B
:103E0C002C14C3F85015D2F83014C3F85415D2F84A
:103E1C003414C3F86015D2F83814C3F86415D2F80A
:103E2C003C14C3F86815D2F84014C3F86C15D2F8DA
:103E3C004424C3F8702503F034F948B14FF0805393
:103E4C004FF08042D3F8583203F04F03C2F8E43EEF
:103E5C0003F027F948B14FF08043D3F80024D20780
:103E6C0044BF6FF00102C3F800244FF08053D3F825
:103E7C003021062A26D1D3F83431033B042B02D847
:103E8C002E4AD35C63B12E4AD2F83C3743F480639C
:103E9C00C2F83C374FF08053D3F83031062B11D198
:103EAC004FF08053D3F83431033B042B02D8254A0E
:103EBC00D35C3BB14FF01023D3F808224FF0804372
:103ECC00C3F858254FF01023D3F80022002A03DB47
:103EDC00D3F80432002B22DA1B4901234FF01020B7
:103EEC00C1F804351524FFF7EFFEC0F80042FFF7C8
:103EFC00EBFEC0F80442FFF7E7FE0023C1F80435DF
:103F0C00FFF7E2FEBFF34F8F0849104BCA6802F46B
:103F1C00E0621343CB60BFF34F8F00BFFDE710BDD2
:103F2C000030014000C007400DF0ADBA00ED00E0DC
:103F3C00005000400380000000C00040FE7F0000E5
:103F4C0000100040F97F000000E001400400FA0579
:103F5C0030B50468CCB1BFF35B8FB4FA84F3C3F112
:103F6C001F03DBB201229A4024EA020250E8005FF0
:103F7C00A54204D140E8002CBCF1000FF6D1BFF3F0
:103F8C005B8FE6D102480B7030BD0248FCE700BFE6
:103F9C000000AD0B0200AD0B10B50368CB40DB0786
:103FAC0014D401238B400268BFF35B8F43EA0201F8
:103FBC0050E8004F944204D140E8001CBCF1000FC3
:103FCC00F6D1BFF35B8FEED1014810BD0148FCE781
:103FDC000000AD0B0400AD0BF7B5044618B1012879
:103FEC0023D003B0F0BD4FF080430222C3F8082366
:103FFC000122DA60C3F80401D3F804310646012328
:10400C008DF8073042F210754FF08047D4B1012C77
:10401C00E7D1D7F80C3403F48033AEBB83B3012063
:10402C0003F04EF8013DF4D12AE04FF0804300221A
:10403C00C3F808035860C3F80021D3F800310DF120
:10404C000706DCE7D7F8183403F480333EB9002BAD
:10405C00C7D0012003F034F8013DF3D1C1E7D7F804
:10406C00182402F003023260002BBAD09DF807002E
:10407C00012803D103F024F8013DC7D1012CB0D1A4
:10408C00054B00225A71ACE7D7F80C2402F0010260
:10409C003270002BEAD1F3E7780E0020054B1A7929
:1040AC002AB99A71012218609A8003487047034814
:1040BC00704700BF780E00200000AD0B0C00AD0B5C
:1040CC0008B5074B1B682BB10020FDF773FF08B92F
:1040DC00FDF74EFF4FF080430022C3F8182508BDB2
:1040EC00780E002038B5B0B1012851D14FF0804284
:1040FC000023C2F80031D2F800212E4A03F180438C
:10410C00012119602C4B1B68002B4CD04FF08043C5
:10411C00C3F804033CE04FF08043D3F81814D3F8F1
:10412C001824CC0326D5900702D00020FFF754FFAB
:10413C004FF080430022C3F81825C3F804211F4A0E
:10414C00D3F80431D2F8FC0040F08073C2F8FC3094
:10415C001B4B1C6844F0010119605D685968491BD0
:10416C00B1F50A5FFAD31C60C2F8FC000823154AAB
:10417C000220C3E7D3F81424D107D9D5D3F81C24D3
:10418C009207D2D10C4A12681AB10222C3F8042346
:10419C0038BDD3F80421002AFBD00022C3F8042137
:1041AC00D3F80431F4E71368002BFCD00023136020
:1041BC001368EDE700010040780E002000ED00E0F0
:1041CC00001000E00401004010B54FF08043D3F81C
:1041DC0000216AB10022C3F80021D3F8002101228A
:1041EC00C3F80823184B587910B95A711B689847B3
:1041FC004FF08043D3F804215AB10022C3F80421B4
:10420C00D3F804210222C3F808230F4B01201B68AA
:10421C0098474FF08043D3F80C21A2B1D3F8042374
:10422C00120710D50022C3F8342CC3F80C21D3F894
:10423C000C110821C3F80813034B9A71BDE8104008
:10424C001B680420184710BD780E002070B500F1D3
:10425C0008030C4C34F81330DA0505460E4607D526
:10426C00C3F3432304EBC30254F83330526898472A
:10427C00A3682BB1E26831462846BDE87040184768
:10428C0070BD00BF2000002010B4C0B2114A08302D
:10429C0032F81030D9051BD5C3F3432123F4F8535E
:1042AC0022F8103002F10E04002034F8023F13F40F
:1042BC00807F03D0C3F34323994209D001302028D7
:1042CC00F3D1002342F83130034810BCFFF764BE31
:1042DC0010BC70472000002078000020F0B5054687
:1042EC0000200446012607468C420BD1114BD3F813
:1042FC007C2132B10022C3F87C21D3F87C3140F010
:10430C000040F0BDE3B29B0003F580729B0806FAF7
:10431C0003F31D420BD002F1804202F5C042D2F8E9
:10432C0000C0BCF1000F02D01760126818430134B2
:10433C00DAE700BF00600040CBB202460833084603
:10434C000C4931F81330990611D599070FD4106820
:10435C005B0B01219940C0F80813126802EB830330
:10436C00D3F8102522F00302C3F810257047002162
:10437C0002F0FDBE20000020F7B5CDB2174E083577
:10438C00074636F81530DB070C4624D5FFF7D4FF6B
:10439C0036F815309A0606D55B0B3A6803F5A2730E
:1043AC00002142F823102046FFF76EFF002301A8DE
:1043BC0026F81530019402F087FE019B00EB830078
:1043CC00074BD0F80027134043F00203C0F8003726
:1043DC00044803B0F0BD0448FBE700BF20000020F8
:1043EC00F0F8FCFF0000AD0B0400AD0B2DE9FF4114
:1043FC00136807460C461546FBB1CEB2DFF83C817C
:10440C00083638F8162002F02202222A22D0002286
:10441C00CDE900228DF80E208DF80F200DF10E0144
:10442C000DF10F02204602F059FE38F8163023F039
:10443C00020343F0010328F816306B684BB393F872
:10444C0000C05A683D4EE3B2083336F813108807A3
:10445C0002D5B2B13A481FE021F02001C904C90CC1
:10446C0026F813106AB1BCF1030FF3D86A683868E8
:10447C0052681278BCF1000F11D102F5A27240F80B
:10448C0022C036F8132022F01C0242EA8C0226F8D5
:10449C001320AB6843BB2B4804B0BDE8F08100EBA4
:1044AC00820041EA4231D0F810E52EF0030EC0F83C
:1044BC0010E53F6807EB820741F02001D7F81005A3
:1044CC0026F8131020F4473020F44070C7F810057C
:1044DC002002D7F810E500F4F85040EA0C4040EA0E
:1044EC000E00C7F81005CCE7D3E900672046FFF7AC
:1044FC00CBFE002ECFD0114DD5E90023964203D12F
:10450C009F4201D1002209E00F480DF10F01FFF786
:10451C001FFD0C4B9842BFD19DF80F2045F832601F
:10452C00E4B205EBC20308345F6035F8143043EA9B
:10453C00422343F4807325F81430ACE720000020AC
:10454C000400AD0B0000AD0B780000202DE9FF41FD
:10455C0007460C461E4612B3CDB2DFF8D0800835A4
:10456C0038F81530980701D4990621D413F01C0F94
:10457C0002D05378012B1BD001238DF80F30002370
:10458C00CDE900230DF10F01931C2046013202F0FE
:10459C00A5FD38F8153043F0030328F81530002E2C
:1045AC0042D0E1B2214D083135F81120930703D4E4
:1045BC001F4804B0BDE8F08196F800E0D7F800C0C1
:1045CC0022F020020EF5A270D2040023D20C4CF87B
:1045DC00203025F8112096F801C0BCF1000F23D033
:1045EC003868B67800EB8E004FEA0C4CD0F81035DA
:1045FC0023F4981323F4F853C0F81035230203F472
:10460C00F8530CF4403C3605D0F8107543EA0C0313
:10461C0006F4801642EA4E32334342F020023B430A
:10462C0025F81120C0F810350248C2E72000002000
:10463C000400AD0B0000AD0B014BC3E90212704737
:10464C0020000020C9B20831044B33F81130990610
:10465C0043BF5B0B024813700248704720000020D8
:10466C000000AD0B0400AD0B70B5184E96F8604011
:10467C0005464CBB2146402206F1100001F0AFF874
:10468C002D68306D2146884212D10023C5F87C314B
:10469C0045F30730D5F87C31FDF76AFC4FF0004349
:1046AC00C5F804330A48012386F86030B36570BD41
:1046BC00CBB29B0003F580727C2B08BFAC5001F190
:1046CC00010108BFAB58DEE70248F0E720000020EC
:1046DC000000AD0B0C00AD0B034B93F860000038E1
:1046EC0018BF0120704700BF200000200148FFF7D1
:1046FC0053BC00BF740000200148FFF729BC00BF69
:10470C007400002073B5CBB20C4608331D4931F848
:10471C00133099061AD513F0020617D15B0B9C00C7
:10472C00056804F580716E50695801682144D1F810
:10473C00104544F00104C1F810452AB1016801226A
:10474C0002FA03F3C1F8043302B070BDC3F3820361
:10475C00042B12D0052B12D001A8019402F0B4FC4A
:10476C00019AD0F81035D34003F00103991C204670
:10477C0002B0BDE8704002F0FABC0321F7E7022159
:10478C00F5E700BF200000202DE9F347544B554FAF
:10479C00D3F80403396DC0B240F00040FFF79EFD22
:1047AC00051E18DA0023F96D0093684602F0EEFC42
:1047BC004FF0010897F85C30DA075AD4396D4FF096
:1047CC000040FFF78BFDF96D684602F0DFFC002816
:1047DC00F0D125F000450124002D69D102B0BDE8CF
:1047EC00F08794FAA4F4B4FA84F4E00804F1080312
:1047FC0004F0070237F813901DF80030019408FA02
:10480C0002F223EA02030DF8003001A802F05CFC6E
:10481C00019B03F5E0734FEA990150F82360C9F34B
:10482C00820A4B07D146C6F3014626D5204651468F
:10483C00FFF70CFD01A8019402F046FC019B03F567
:10484C00E073F6B250F82330C3F301439E4207D114
:10485C000021204602F08BFC3146204602F087FCFA
:10486C0001A8019402F030FC019B08FA03F3C0F894
:10487C002035009C002CB4D1A0E7022E0CD10321D2
:10488C00204602F074FC0AF00503012BE8D14946DE
:10489C002046FFF7DBFCE3E70221204602F067FC31
:1048AC00BAF1030FF3D0032EDAD1BAF1020FEDE710
:1048BC0095FAA5F3B3FA83F304FA03F29B0003F120
:1048CC00804303F5C04325EA0205D3F81005D3F85D
:1048DC001015C0F30420C1F30141FFF7B7FC7BE7CF
:1048EC000060004020000020044AD2F80034DB07AE
:1048FC00FBD50160BFF35F8F704700BF00E0014044
:10490C004FF080531A69B0FBF2F302FB130373B937
:10491C00084B0222C3F80425C3F80805D3F8002479
:10492C00D207FBD500220448C3F80425704703487E
:10493C00704700BF00E001400000AD0B0A00AD0B5A
:10494C0010B5054C0123C4F80435FFF7CDFF002347
:10495C00C4F8043510BD00BF00E0014030B504467A
:10496C00022008730A6120680125C0F800554D68C3
:10497C002068FDB112F0100F0CBFB2253225C0F823
:10498C0000539B0012F08000256803F108034FF0E0
:10499C00010211D01D440D6023799A40074B92B24D
:1049AC00C3F8042320798000C0B200F1804000F5E8
:1049BC00C03030BD3025E2E7EA50FAE70080014014
:1049CC0070B50B4C0679182505FB06456B6833B999
:1049DC000068022102F00BFC08B101232B73182391
:1049EC0003FB0644207B023818BF012070BD00BFBA
:1049FC00800E00202DE9F0410B7FBBB34C7F0F8B59
:104A0C0091F815C091F816E08A7E91F81B80036826
:104A1C005CB9D1E90065D1E90241C3F86065C3F81E
:104A2C006455C3F86845C3F86C1542EA0822C3F80C
:104A3C000CC5C3F804E5C3F80875C3F81025006865
:104A4C000023C0F81031D0F81021C0F80831D0F88C
:104A5C000821C0F80C31D0F80C3140F30730FDF7C9
:104A6C0087FABDE8F0411820FDF782BADFF87CC068
:104A7C000C1F01F1100501F10C07012654F8043F3D
:104A8C005A1C20D095F800E003F01F024FEA53188F
:104A9C00BEF1000F1CD0B8F1000F03D00023C3F8F7
:104AAC000835FFDE4FF0A04E06FA02F2CEF80825CC
:104ABC009B0003F1A043D3F8002702EA0C0242F05A
:104ACC000302C3F80027BC4205F10105D6D195E7D6
:104ADC00B8F1000F06D14FF0A04E06FA02F2CEF854
:104AEC000C25E5E7CEF80CE5DBE700BFF0F8FCFFA2
:104AFC00F8B50D4D0779182404FB075494F80CC035
:104B0C00BCF1000F0DD1C4E9012319B10B7F237542
:104B1C00FFF770FF182303FB0755044801232B7381
:104B2C00F8BD0348FCE700BF800E00200000AD0B71
:104B3C000C00AD0B70B40C460179266815461A466C
:104B4C001A4B01EB410103EBC1010368C3F820656B
:104B5C00A688C3F82465A668C3F82865E668C3F878
:104B6C002C6503682668C3F84065A688C3F84465BD
:104B7C00A668C3F84865E468C3F84C45046805F0BA
:104B8C00010303EB5505C4F81455D4070CD412F0EB
:104B9C00020403D0002B14BF082404240568C5F8B4
:104BAC00004270BCFFF7DABE1024F7E7800E00203D
:104BBC0038B5036805790022C3F800220368012286
:104BCC0004465A6071B12046FFF7FAFE0028FAD06D
:104BDC0023680022C3F80025054B182202FB05337D
:104BEC0001221A732046BDE83840FFF7E9BE00BF2A
:104BFC00800E0020134BD3F8002142B10022C3F8E1
:104C0C000021D3F80021104A126801211160D3F859
:104C1C00042142B10022C3F80421D3F804310A4B19
:104C2C009B6901221A60074BD3F8082142B100227C
:104C3C00C3F80821D3F80831034B1B6B01221A600F
:104C4C00704700BF00800140800E002001490248DF
:104C5C0002F0F7BA800E002000C001400149024862
:104C6C0002F0EFBA980E00200010024001490248F1
:104C7C0002F0E7BAB00E00200020024010B5144C30
:104C8C00A8220021204600F0AAFD03232361114A2B
:104C9C006361114BA261E3614FF4806323620023D3
:104CAC00A3626362E36222660C4A62661022A26609
:104CBC002367E3666367BFF35F8F094A12F8011D30
:104CCC00E1540133102BF9D1BFF35F8F10BD00BF3E
:104CDC00C80E00200D8000008628002076280020B9
:104CEC0026800000104B70B553F82040013053F86B
:104CFC002060A64200D870BDD4E9003595B153B1FF
:104D0C002846984738B10028B8BF4042EB68FF28C6
:104D1C00A8BFFF201870EA68537843F00103537062
:104D2C000834E6E79847FBE7D478000008B5094B50
:104D3C00012203201A70FFF7D5FF00F01FF90420A1
:104D4C00FFF7D0FFFBF72EFB034A137B23F0010385
:104D5C00137308BD862C0020B800002008B503484A
:104D6C00034A0021121A02F0C9FA08BD980000206B
:104D7C00882C002008B50020FFF7B4FF184B83F3F4
:104D8C000888184C636943F4007363610025E023C1
:104D9C0084F82230E57725766576A57684F8205060
:104DAC00636A43F4E023636284F82350FDF73EF812
:104DBC00FDF770F94FF0FF33A362E362FDF7DCF906
:104DCC00FDF79AF902F07EFA0120FFF78BFF022023
:104DDC00FFF788FF04482B462A462946FDF742F97F
:104DEC000035002000ED00E0394D000008B5064804
:104DFC00064A0749121A02F083FABDE80840054A30
:104E0C000549064802F07CBA0000002098000020FA
:104E1C0058800000000000005880000000000020B6
:104E2C00034B1B680BB9FEF733B80020704700BF6B
:104E3C00700F002010B50E4B1C689C4204D1FFF77C
:104E4C00EFFF6FF0004010BDFFF7EAFF002CF8D029
:104E5C00D4E904321B1A62EBE072B3F1004F72F129
:104E6C000001EEDA002AACBF18460020EBE700BFC9
:104E7C008400002030B570B10B4B5B6898420AD0AF
:104E8C00036843B1D3E90421D0E90445121941EB7D
:104E9C000501C3E90421D0E9003213605A600023F4
:104EAC00C0E9003330BD00BF840000202DE9F84F6D
:104EBC004FF02003EFF3118C83F31288BFF36F8F45
:104ECC00DFF8ACA0DFF8AC902B4FC9F80000DAF893
:104EDC0000000024504508BF00200025D7E9002120
:104EEC00D9F80030E04680B3D0E9046C4FEAE37E99
:104EFC00B3427EEB0C0B05DAF61A6CEB0E04C0E930
:104F0C00046422E0B21841EBE671C0E90445C7E93C
:104F1C000021FFF7AFFF88F31188BFF36F8F836811
:104F2C0098474FF02003EFF3118883F31288BFF3F7
:104F3C006F8FD9F80030DAF800009B1B5045C4463F
:104F4C00C9F80030CAD1D7E900219A1841EBE373B4
:104F5C000024C7E90023C9F80040FFF76BFF214686
:104F6C00FDF768FF88F31188BFF36F8FBDE8F88FEA
:104F7C0084000020700F002038010020014800F050
:104F8C005ABA00BF2780000070470020704730B528
:104F9C0083688B4285B0044615460ED96368C06899
:104FAC00194401AA00F02CFD28B96268019B9B1AD8
:104FBC002B60029B6B6005B030BD6FF02100FAE7EF
:104FCC002DE9F7430E4617469946044628B94FF08B
:104FDC00FF38404603B0BDE8F0830029F7D0002A23
:104FEC00F5D0CB680D891D4404230DEB0302294633
:104FFC00384600F015FB80460028E8D1BDF80410B7
:10500C00738946F60812914225D1BDF806109942D3
:10501C00DDD104230DEB03022944384600F000FBDC
:10502C000028D4D1BDF8042046F607139A42CED1FD
:10503C00C4E900679DF82830A4F80890A37273891E
:10504C00BDF806202B44E360738913442B440435CC
:10505C0063612561BDE7002BE4D0B8E72DE9F3418E
:10506C000E4617461D46044620B94FF0FF3002B0DD
:10507C00BDE8F0810368002BF7D04368002BF4D017
:10508C004FF6FF78D4E904239A4216D223685B8941
:10509C0023B1E368934204BF0433236104232169E1
:1050AC0060680DEB030200F0BBFA0028DDD1A37A97
:1050BC002BB1D4E903329A4201D30120D7E72389DB
:1050CC00BDF80610434501F1040203D0BDF804C03D
:1050DC009C450BD115B1BDF804302B8023690433EA
:1050EC0033603980236913442361C0E72369134477
:1050FC002361C7E700F058BB4FF4C07358433030FE
:10510C00704710B5044600F0C9FAA3684FF4C0729A
:10511C00303B02FB103010BD70B50D46044600F05C
:10512C0022FE2A46A0F1080104232046BDE8704067
:10513C0000F076BA13B50446019100F014FE042376
:10514C00A0F108010DEB0302204600F04FFE02B067
:10515C0010BD70B513460E46154600210246044696
:10516C00FBF780FE50B92B4604F12C02012120469E
:10517C00FBF778FE10B1002E08BF002070BD73B590
:10518C00044600200D461646FBF78CF96946C0B262
:10519C00FCF7B0FC30BB2C2303FB05440098E36800
:1051AC0025891D4404230DEB0302294600F038FA2F
:1051BC00C0B9BDF804206489009846F608139A42D9
:1051CC0015D1BDF806309C420CD104230DEB030223
:1051DC00611900F025FA28B9BDF8042046F607132A
:1051EC009A4207D0009800F01AFA02B070BD002C59
:1051FC00F2D0F7E7BDF80610214429443160F1E7FD
:10520C0037B50446426A802501A902200195FCF7B6
:10521C0099FC58B9019B226DA36201A90520019547
:10522C00FCF790FC054628B1092500E0012528462D
:10523C0003B030BD019B206A636500F02FFAE06576
:10524C00F5E70123036003F1012343600023C0E968
:10525C00023370474379012B07D10368012B04D12A
:10526C000079431E584258417047002070477FB563
:10527C0006460D46022001A9FCF73CFC38BB019800
:10528C00FFF73FFFF16D0446284600F0BFF80444D9
:10529C00019800F003FA0646019800F006FA08227D
:1052AC0001460DEB020000F09AFA2B798DF80830CC
:1052BC0021460198334602AA00F0C7F9041E019852
:1052CC0018BF012400F0ABF9204604B070BD0124D6
:1052DC00FAE700F0CFB92DE9F8430E460021074656
:1052EC000846FBF7DFF8012104460020FBF7DAF84B
:1052FC0033789C4221D0984221D101252C2303FBE9
:10530C000575F86DAC6AFFF7F7FE013C07464FF0E8
:10531C0000086B6A03EBC40253F83410D2F8049003
:10532C001B684A46C91A3046C844FFF7D2FFB84535
:10533C0004F1FF34EDD3BDE8F8830025DEE701204E
:10534C00F9E737B515460C460520694600F091FD86
:10535C00E979012903D00022204600F09EFD9DF83A
:10536C000330012B02D1204600F076FDA9682046BF
:10537C00FFF7E0FE2046FDF7ADFD002003B030BD89
:10538C0073B50D460646FBF76DFE0446E86050B358
:10539C0002282DD101A9FCF7ADFB58BB01982A4678
:1053AC003146FBF7C5FD0446D0B9019800F0DBFC93
:1053BC00012301460DF10302019800F031F9044676
:1053CC00A0B9019801220DF1030100F0E0FC10B12D
:1053DC0001238DF803309DF8033003F00F03EB71BC
:1053EC00019800F01CF9204602B070BD0124F7E7CB
:1053FC000724F8E70124F6E7436A00205A680346BD
:10540C0013448B4200F10100FAD3704710B5437975
:10541C000279012B14BFCB01002302F1FF3201FBF7
:10542C000233026814BF4C000C46013A04FB0230F4
:10543C0010BD002070470FB407B504A951F8040B38
:10544C000191FCF713F803B05DF804EB04B070475E
:10545C00038B13F0070305D10368002B0CBF00204E
:10546C0003207047022B05D1408BB0FA80F0400925
:10547C0080007047012B05D10368002B0CBF002066
:10548C00052070470020704710B50C4600B111B9CB
:10549C006FF0150010BD081D00F095F80028F9D12B
:1054AC00A368032BF6D9F3E72DE9F0410D46074627
:1054BC001946281D90461E4600F096F8044638B151
:1054CC003346424629463846A446BDE8F04160477B
:1054DC00BDE8F08110B44FF02004EFF3118284F397
:1054EC001288BFF36F8F416110BC0121FBF7CCBF59
:1054FC0038B50C46054658B151B10B6843B14B68F1
:10550C0033B11C22002100F06AF92C61002038BD57
:10551C006FF01500FBE770B505460E46FFF7B4FFBC
:10552C00041E15DB4FF02003EFF3118283F3128876
:10553C00BFF36F8F6B8B2C8B4FF6FF718B4204F08C
:10554C00070407D182F31188BFF36F8F6FF00A0441
:10555C00204670BD022C0CD101336B8382F3118871
:10556C00BFF36F8F0023224631462846FFF79CFF7E
:10557C00EEE7062C14D8DFE804F004131313041A16
:10558C000400002333606B683BB9C5E90066ACB915
:10559C0002212846FBF778FFDAE71E606E60F6E71B
:1055AC0082F31188BFF36F8F6FF00404D0E782F39E
:1055BC001188BFF36F8F6FF08504C9E782F31188F0
:1055CC00BFF36F8FC4E7034658B1426802F0030281
:1055DC00012A03D0032A04D1026812B1002098607A
:1055EC0070476FF0150070474268816002F003024B
:1055FC00032A4FF0000203460CBF006810465A60A5
:10560C00704770470FB407B504A951F8040B01910A
:10561C00FBF72CFF03B05DF804EB04B07047704748
:10562C00002930B4044618460BDBA5680844A84290
:10563C0007D8E0686468214484682468A44630BCB8
:10564C0060476FF0150030BC7047002930B4044639
:10565C0018460BDBA5680844A84207D8E0686468C4
:10566C00214484686468A44630BC60476FF0150020
:10567C0030BC70470029034610B410460ADB9C6806
:10568C000844A04206D8D8685B681944836810BCEB
:10569C009B6818476FF0150010BC704708B5C068C0
:1056AC008368DB689847006808BD08B5C0688368E4
:1056BC00DB689847007908BD70B54C680368A34255
:1056CC0001D2012070BD8A682244934201D300208C
:1056DC00F8E7D1E903254E69B54203D36FF00B030C
:1056EC008B61F4E71B1B42F835304368086902EB09
:1056FC00C00253600B6901330B61E2E701F0EEBDB0
:10570C000146006801F0EABD08B5FCF74BFABDE8AC
:10571C000840FCF74BBA00210120FFF7EFBF20280F
:10572C0009D9B0F1004F08D80138B0FA80F0C0F1B7
:10573C001F0040007047082070473E2070472DE93D
:10574C00FF410E469846144605460027B74220DA1C
:10575C006868C8B1B8F1000F07D0431E184216D1C3
:10576C001F2814D92A68134211D12B680193FFF713
:10577C00D6FFAB6803430393E3B2072B07D820464D
:10578C0001A9FCF7C5FC013401370C35DEE76FF0DD
:10579C001504204604B0BDE8F081034600201A5CD5
:1057AC0002B970470130FAE710B55AB101398418C3
:1057BC0010F8012B11F8013FA04201D09A42F7D00A
:1057CC00D01A10BD1046FCE710B5431E0A44914296
:1057DC0000D110BD11F8014B03F8014FF7E7C9B226
:1057EC0002440346934200D1704703F8011BF9E7CA
:1057FC000369C9B20C2201FB0233186C00F00700DC
:10580C0070474FF02003EFF3118283F31288BFF33C
:10581C006F8F036803F0C00343F00203036082F34D
:10582C001188BFF36F8F704770B5C9B203694FF021
:10583C002004EFF3118584F31288BFF36F8F0C26CD
:10584C0006FB0134246C14F0C00408D0A24206D02C
:10585C0085F31188BFF36F8F4FF0FF3070BD71432C
:10586C000B4401221A6485F31188BFF36F8F4368D0
:10587C000B445B6898470020F0E78022FFF7D4BF09
:10588C00F8B5069F0469C9B24FF02005EFF31186F5
:10589C0085F31288BFF36F8F0C2569430C44256C7C
:1058AC0005F0070CBCF1010F0BD1276486F31188AE
:1058BC00BFF36F8FC4E90E2343685B5898470020F1
:1058CC00F8BD05F0C005AF4286F31188BFF36F8FAA
:1058DC000CBF6FF077004FF0FF30F1E713B5802469
:1058EC000094FFF7CDFF02B010BD6FF0850070473C
:1058FC0010B40069CBB21C2403FB0400002110BCC3
:10590C001047002001F0DEBB38B505460C4601F00F
:10591C004FFC002D07DBA84205D9401B84428CBFED
:10592C000020012038BD0020FCE770B50C46154660
:10593C0001F044FC294606462046FFF7E5FFB8B1C6
:10594C00B4FBF6F306FB134393B9B5FBF6F306FB76
:10595C0013536BB9AE4201D9002070BD01F02EFC7F
:10596C0006462046FEF7CCFFAD1B3444F9D1F3E7D5
:10597C006FF01500F1E770B50D462846194616462E
:10598C001C46FFF7C1FF38B124B1224629463046E8
:10599C00FFF71AFF002070BD6FF01500FBE7F7B59D
:1059AC001C461646002382682360A36013690D46CB
:1059BC0001AA69469847019B5A1E01921BB96FF0C8
:1059CC00150003B0F0BD0098A268476821686760B5
:1059DC0085B9B31AD0F800C0634528BF63461A4492
:1059EC0003FB07112160A26002689A4206D80830B6
:1059FC000090E0E76B1AB3FBF7F3EBE70020E0E76E
:105A0C0013460022FFF7CBBF2DE9F047836886B021
:105A1C001B698846914601A902AA98470024A24610
:105A2C002546029BAB4202D806B0BDE8F087019F29
:105A3C0007EBC50700267B6804933A68B2420AEB71
:105A4C00060302D801359A46EBE7039405934946C1
:105A5C0003A8C0470028E7D0049B01361C44ECE7A0
:105A6C0043685B68D3F810350B60002070474368BF
:105A7C005B6802EA010021EA0201C3F80805C3F8D9
:105A8C000C150020704743685B680020C3F80815AC
:105A9C00704743685B680020C3F80C157047436877
:105AAC005A68D2F8043521EA03000B40C2F8080505
:105ABC00C2F80C350020704710B503695868F8B16E
:105ACC00884219D19C6808685860A14200D198603E
